:100000000C9464000C94A31B0C94D01B0C948C00D7
:100010000C948C000C9420040C948C000C946307BA
:100020000C948C000C948C000C948C000C94E802C2
:100030000C948C000C94F20C0C948C000C948C009E
:100040000C94FD1B0C948C000C946A200C94AD2035
:100050000C948C000C948C000C948C000C948C00F0
:100060000C94461A0C948C0000000007000201005A
:100070000003040600000000000000000102040864
:100080001020408001020408102001020408102002
:10009000040404040404040402020202020203032E
:1000A00003030303000000002300260029000000D2
:1000B0000000250028002B0000000000240027007D
:1000C0002A0069045619E82011241FBECFEFD8E09A
:1000D000DEBFCDBF11E0A0E0B1E0E6E3F8E402C08E
:1000E00005900D92AE3AB107D9F727E0AEEAB1E03C
:1000F00001C01D92A035B207E1F710E0C8ECD0E0D6
:1001000004C02297FE010E94E323C23CD107C9F735
:100110000E94CB1F0C9419240C9400008627082EF3
:100120008295807F8025092E982F82958F700826D2
:10013000869598278927880F880F880F802508952E
:10014000ECE5F1E090E02191821729F09F5F90317A
:10015000D1F780E00895892F0895809300010895D4
:100160001F93CF93DF939091D901992329F0809128
:10017000D6018F5F8093D6012091D8018091D7015D
:10018000921759F0803510F42BE001C02DE1820F59
:100190008093D7019093D80103C08C5E8093D701E0
:1001A0002091D701203A08F47AC08091D101909132
:1001B000D201969587959093D2018093D101309189
:1001C000D601353028F098609093D2018093D10108
:1001D000205A2093D7011092D6018091D50188230F
:1001E00009F44DC08091D0018F5F8093D0018C3095
:1001F00008F455C0C091D101D091D2018C2F8F73DA
:100200000E94A000182FCE0126E0969587952A958A
:10021000E1F70E94A00090E1199F90011124822B28
:100220009091B00191110EC08093B1019CEF980F95
:100230009B3140F01092D5018091AF018F5F809388
:10024000AF012DC0E091B00191E09E0F9093B001FD
:10025000F0E0EE54FE4F80839091B0018091B101A7
:10026000981750F01092D5018091AE018F5F809366
:10027000AE0181E08093D4011092D00110C0809132
:10028000D1019091D20188339B4049F481E0809361
:10029000D5011092D0011092B0011092D401DF91DB
:1002A000CF911F9108954F925F926F927F92BF926C
:1002B000CF92DF92EF92FF920F931F93CF93DF9332
:1002C000CDB7DEB72E970FB6F894DEBF0FBECDBF09
:1002D000BC018EE0EEE4F1E0DE01119601900D929A
:1002E0008A95E1F76115710509F49AC080E090E004
:1002F0000E947C229B01AC0160E070E080E89FE3FB
:100300000E94E32120E030E040E05EE30E940A2307
:100310006B017C018E010D5F1F4FBB24B394F8016C
:10032000619171918F0180E090E00E947C229B019D
:10033000AC0160E074E284E79BE40E94E3219B014E
:10034000AC0160E070E080E89FE30E94E3219B0144
:10035000AC01C701B6010E94E3210E944B222B0190
:100360003C01F2E04F1A5108610871082DEF421666
:100370002FEF52066104710428F0B394E7E0BE1237
:10038000CECF05C0F6E0BF1609F44AC00CC06230FB
:1003900071058105910508F443C06115710521E0DF
:1003A00082079105E8F5BB20D9F11092800028E082
:1003B00020938100209181002B292093810070934C
:1003C00089006093880080916F00826080936F0045
:1003D00061E0809100010E94331F60E08091010183
:1003E0000E94331F61E0809102010E94331F6091DF
:1003F000DA01809102012E960FB6F894DEBF0FBE8F
:10040000CDBFDF91CF911F910F91FF90EF90DF90C3
:10041000CF90BF907F906F905F904F900C946C1F27
:100420002E960FB6F894DEBF0FBECDBFDF91CF91F1
:100430001F910F91FF90EF90DF90CF90BF907F9032
:100440006F905F904F900895CF931092E0011092BB
:10045000DF011092DE016091DA01C1E06C2780912A
:1004600002010E946C1FC093DD01CF91089560913D
:10047000DA01809102010E946C1F60E0809100010E
:100480000E946C1F1092DD0108958091DD018111A1
:10049000FCCF0895CF92DF92EF92FF920F931F93BC
:1004A000CF93DF93F82EE92ED62E8BE1861708F432
:1004B00085C00E944502C3E0CD0D6C2F8FEF9FEFEA
:1004C0000E948E00AC2FB0E0F4E0B595A795FA95A8
:1004D000E1F7A45ABE4F2C9120930B01CF70EC2F63
:1004E000F0E0E45AFE4F208120930C010BE011E074
:1004F000CF2CCF2DDE2D0E5F1F4F2C2F2C192D153D
:10050000D0F47E0168810E948E00A991B0E0E4E001
:10051000B595A795EA95E1F7A45ABE4F2C91D8015D
:100520002C93D701EC91EF70F0E0E45AFE4F20815C
:10053000F8012183E0CF61E06D0D660F8095909505
:10054000E62FF0E0E55FFE4FDC0144E0B695A795AD
:100550004A95E1F7AF70BB27A45ABE4F2C91208378
:10056000E1E0E60FF0E0E55FFE4FDC01AF70BB2796
:10057000A45ABE4F2C912083E2E0E60FF0E0E55F45
:10058000FE4FDC01AB2FBB27A295AF70A45ABE4F24
:100590002C912083A3E0A60FB0E0A55FBE4FE92F0A
:1005A000FF27EF70FF27E45AFE4F80818C93645F32
:1005B0006093E1010E94240281E001C080E0DF91AC
:1005C000CF911F910F91FF90EF90DF90CF90089502
:1005D0001F920F920FB60F9211242F933F934F93B8
:1005E0005F936F937F938F939F93AF93BF93EF939B
:1005F000FF938091D301882321F08091DD0188232E
:1006000071F18091DD018823C9F08091DE0191E0D4
:10061000980F9093DE01811111C0E091E00180916B
:10062000E101E81718F10E9437028091DB019091F7
:10063000DC0101969093DC018093DB018091DE0167
:10064000883010F01092DE018091D301882379F177
:100650008091DD0181112BC00E94B00028C08091E3
:1006600001010E94A21F8093D901CBCFF0E0ED5F82
:10067000FE4F60812091DF0181E0820F8093DF01D6
:1006800081E090E001C0880F2A95EAF76823809105
:1006900000010E946C1F8091DF01863078F2109279
:1006A000DF018091E0018F5F8093E001C7CFFF9170
:1006B000EF91BF91AF919F918F917F916F915F91DA
:1006C0004F913F912F910F900FBE0F901F90189553
:1006D00081ED95E00C94FB18CF93DF93EC0168E675
:1006E00070E081ED95E00E94341960E081ED95E0C5
:1006F0000E94BC1881ED95E00E94491947E050E046
:1007000068E670E081ED95E00E94271981ED95E0A3
:100710000E943D18282F2695269526952E70922FFB
:10072000990F990F920F8F70980F988381ED95E034
:100730000E943D18982F92959F708F702AE0929F8B
:10074000800D1124898381ED95E00E943D18282FAA
:100750002695269526952670922F990F990F920F20
:100760008F70980F9A8381ED95E00E943D18982F25
:1007700092959F708F702AE0929F800D11248B8339
:1007800081ED95E00E943D18982F92959F708F7093
:100790002AE0929F800D11248C8381ED95E00E94C8
:1007A0003D18982F92959F708F702AE0929F800D30
:1007B00011248D8381ED95E00E943D18982F92952C
:1007C0009F708F702AE0929F800D112490E09F838C
:1007D0008E83DF91CF910895CF93DF9382E00E94C3
:1007E000A21FEC0183E00E94A21F8C239D2301978E
:1007F00019F481E08093E401DF91CF91089584E0C2
:10080000809368008BB381718BBB8CE080936D000B
:10081000089548EE53E060E070E088E494E00E94C0
:10082000810D2FEF3FEFA9016CEE73E088E494E0B7
:100830000E94970D7894089588E494E00C94880DB4
:100840001F920F920FB60F9211241F932F933F9375
:100850004F935F936F937F938F939F93AF93BF93C8
:10086000CF93DF93EF93FF931091E4011130E9F4FC
:1008700082E00E94A21FEC0183E00E94A21F8C175D
:100880009D071CF41093E2010CC082E00E94A21F9D
:10089000EC0183E00E94A21FC817D90734F410921C
:1008A000E2011093E3011092E401FF91EF91DF91D7
:1008B000CF91BF91AF919F918F917F916F915F91F8
:1008C0004F913F912F911F910F900FBE0F901F904E
:1008D000189582EE91E00C94FF03CF93DF93EC0127
:1008E00060E088810E946C1F84E190E00E949C1C63
:1008F00061E088810E946C1F84E190E0DF91CF91DC
:100900000C949C1C0F931F93CF93DF93EC01062F45
:1009100018E007FF02C061E001C060E089810E9429
:100920006C1FCE010E946D04000F115091F7DF91F2
:10093000CF911F910F910895EF92FF921F93CF9344
:10094000DF9300D0CDB7DEB77C01162F27FF02C0A2
:1009500060EC01C060EE26FF606147FF686046FF03
:10096000646017FF626016FF6160C70129834A83D4
:100970000E9482042981622FC7010E9482044A8159
:10098000642FC7010E948204612FC7010F900F904E
:10099000DF91CF911F91FF90EF900C9482047F9292
:1009A0008F929F92AF92BF92CF92DF92EF92FF927F
:1009B0000F931F93CF93DF93EC01162F942E822E6B
:1009C00060E00E94820460E0CE010E94820460E048
:1009D000CE010E94820460E0CE010E94820483E086
:1009E000189F7001112467018FEFC81AD80A5701A8
:1009F00082E0A80EB11C712C8A81781600F5711264
:100A00000FC0EB81FC81EE0DFF1D9082EB81FC811C
:100A1000EC0DFD1D8082EB81FC81EA0DFB1D008346
:100A2000EB81FC8183E0789EE00DF11D1124228191
:100A300041816081CE010E949C047394DDCF60E00F
:100A4000CE010E94820460E0CE010E94820460E038
:100A5000CE010E94820460E0CE01DF91CF911F9110
:100A60000F91FF90EF90DF90CF90BF90AF909F904D
:100A70008F907F900C9482040F931F93CF93DF93FA
:100A8000EC01862F688349832A8361E00E94331F2B
:100A900061E089810E94331F8A8161E070E023E078
:100AA000829FC00111240E94F6239C838B8310E057
:100AB0008A81181748F400E020E040E0612FCE0161
:100AC0000E94CF041F5FF4CFDF91CF911F910F9150
:100AD0000895FC0182810895CF93DF93EC01842F68
:100AE0004C836D8361E00E94331F61E08D810E9421
:100AF000331F5C81E52FF0E0E057FF4FE491F0E019
:100B0000EE0FFF1FE255FF4F8591949199838883E3
:100B10004D81E42FF0E0E057FF4FE491F0E0EE0F5D
:100B2000FF1FE255FF4F859194919B838A83252F68
:100B300030E0842F90E0583030F421E001C0220FE3
:100B40005A95EAF70EC05850563018F4285031091B
:100B500002C02E50310931E001C0330F2A95EAF767
:100B6000232F2E83483030F481E001C0880F4A954E
:100B7000EAF70CC04850463010F4089701C00E97B1
:100B800091E001C0990F8A95EAF7892F8F83DF9151
:100B9000CF910895FC0180E1A081B18196812C91D3
:100BA00077FF03C0292B2C9303C0909592239C932D
:100BB000A281B3819C91278192279C93660F771F16
:100BC000815051F70895CF93DF93EC01E881F981CB
:100BD00090818E818095892380838AE090E00E94B5
:100BE0009C1C88E0E881F98190812E819227908376
:100BF0008150C1F7DF91CF910895DF92EF92FF927C
:100C00000F931F93CF93DF93EC018B0161E08C81F5
:100C10000E94331F61E08D810E94331F6091E501C6
:100C20007091E601CE010E94CA0578014CE0D42EF5
:100C3000F701619171917F01CE010E94CA05DA949A
:100C4000B9F76091E5017091E601CE010E94CA05F5
:100C5000085E1F4F3CE0F32EF801619171918F0106
:100C6000CE010E94CA05FA94B9F7CE01DF91CF9167
:100C70001F910F91FF90EF90DF900C94E305CF93BD
:100C8000DF93EC01862FE62FF0E0F983E88350E054
:100C90005B834A832C831E821D8261E00E94331F86
:100CA00061E08A81DF91CF910C94331F1F93CF9322
:100CB000DF93EC0160E08A810E946C1F8AE090E083
:100CC0000E949C1C14E061E08A810E946C1F60E01D
:100CD0008A810E946C1F1150B1F7DF91CF911F9153
:100CE0000895FF920F931F93CF93DF93EC018B0135
:100CF00090E1F92E612F661F6627661F8A810E9488
:100D00006C1F88810E94A21F61E0892B09F060E0BE
:100D100088810E946C1F000F111FFA9459F7DF9110
:100D2000CF911F910F91FF900895EF92FF920F9333
:100D30001F93CF93DF93EC017B01CB0193709E83D4
:100D40008D8360E070E0CE010E94710600E010E04B
:100D50008C81882351F0C701002E02C0880F991F93
:100D60000A94E2F791FF0DC009C0C701002E02C02E
:100D7000969587950A94E2F780FF03C06FEF70E0C5
:100D800002C060E070E0CE010E9471060F5F1F4F4D
:100D90000A301105E9F660E070E0CE010E947106AC
:100DA00060E070E0CE010E947106CE01DF91CF912C
:100DB0001F910F91FF90EF900C945606FC016483F5
:100DC000658176810C9495066B3008F06AE02FEF10
:100DD0003FEF02C0220F331F6A95E2F7209530954E
:100DE000FC0136832583B9010C949506662321F016
:100DF0006B3018F06AE001C061E05FEF560FFC0154
:100E00002581368161E070E002C0660F771F5A9538
:100E1000E2F7442319F0622B732B04C060957095A0
:100E200062237323FC01768365830C949506662305
:100E300021F06B3018F06AE001C061E02FEF260F5F
:100E400061E070E002C0660F771F2A95E2F7FC01AF
:100E50002581368162277327768365830C949506F6
:100E6000FC01858196810895FC0181E0208131811A
:100E7000232B09F480E00895F89482E08093B00079
:100E80008093B10094E69093B3001092B2008093E7
:100E9000700078948093EC01109247048091EB01EC
:100EA00060E00C94331F6093EB010E943C0764E107
:100EB00070E080E090E00E94761C82E08093EC017C
:100EC0001092470408951F920F920FB60F921124AB
:100ED0002F933F934F935F936F937F938F939F9342
:100EE000AF93BF93EF93FF938091EB010E94A21FFA
:100EF0002091ED013091EE012F5F3F4F3093EE01D5
:100F00002093ED01909147049091EC019330B9F05A
:100F100018F4923039F056C0943051F1953009F4FC
:100F20004BC050C081114EC08091ED019091EE01F7
:100F30008436910508F442C0109247041BC08130EA
:100F400009F040C0E09147048E0F80934704F0E021
:100F50008091ED019091EE01EE0FFF1FE151FE4FE8
:100F6000918380831092EE011092ED0184E021C004
:100F7000811117C0E091470481E08E0F80934704F0
:100F8000F0E08091ED019091EE01EE0FFF1FE15135
:100F9000FE4F918380831092EE011092ED0183E069
:100FA00008C08091ED019091EE018536910550F0D9
:100FB00085E08093EC0106C0811104C01092EE011F
:100FC0001092ED01FF91EF91BF91AF919F918F91A1
:100FD0007F916F915F914F913F912F910F900FBE35
:100FE0000F901F9018958FEE91E0FB019183808305
:100FF0008091470490E0938382838091EC01853057
:1010000041F482E08093EC011092470481E090E08B
:10101000089580E090E008952F923F924F925F9262
:101020006F927F928F929F92AF92BF92CF92DF92F8
:10103000EF92FF920F931F93CF93DF931C01FB015D
:10104000DC0112962D913C9113973901B4E06B1A93
:10105000710877FE04C03901CBE06C0E711CA4E06E
:1010600075946794AA95E1F7D1010D911C9140E028
:1010700050E080E090E07801B6E0EB0EF11CD70183
:10108000A40FB51F6D917C91860F971F4C5F5F4F2A
:1010900048325105A1F76AE070E00E946D237B01A0
:1010A0004B01880C991CD801189640E050E060E094
:1010B00070E080E090E08901095011092D913C9188
:1010C00011978216930638F42D913C911197820F57
:1010D000931F6F5F7F4F6A30710559F014969A0124
:1010E0002E5F3F4F4A5F5F4F4017510714F4A9012D
:1010F000E5CF0E946D23562EDF01169648E050E0A2
:1011000020E030E0CC24C394D12C2615370544F5DB
:101110001C928A0187E090E0E10168817981600F8B
:10112000711FEB01A880B9804C90B601082E01C058
:10113000660F0A94EAF78A149B0410F4642902C02B
:10114000609564216C9301970C5F1F4F8F3FDFEF19
:101150009D0711F72F5F3F4F1196405E5F4FD5CF30
:1011600085E0860D8083E101A881B98112968D9179
:101170009C9113978183A881B98114968D919C913C
:1011800015978283E3825482658282E08093EC012A
:101190001092470480818F5FDF91CF911F910F9153
:1011A000FF90EF90DF90CF90BF90AF909F908F9087
:1011B0007F906F905F904F903F902F900895CF93C6
:1011C000DF93EC01BC010E94F307892BC1F08A81F7
:1011D0009B818034910534F004979C01277033275C
:1011E000232B31F082E08093EC011092470407C07A
:1011F000B4E095958795BA95E1F78A5F01C080E0E4
:10120000DF91CF910895CF93DF93EC01862F688310
:10121000498360E00E94331F60E089810E94331F90
:1012200060E088810E946C1F60E08981DF91CF912E
:101230000C946C1F683010F4685F01C06FE0FC0113
:101240006283089561E0FC0181810E94331F82E383
:1012500090E00C949C1CCF93DF93EC0161E08981BA
:101260000E94331F82E390E00E949C1C60E0888112
:101270000E94331F82E390E00E949C1C60E0898101
:101280000E94331F82E390E0DF91CF910C949C1C6D
:101290000F931F93CF93DF93EC01062F18E061E0CB
:1012A00088810E94331F82E390E00E949C1C00FF13
:1012B00002C060E001C061E089810E94331F82E3C7
:1012C00090E00E949C1C60E088810E94331F82E3B2
:1012D00090E00E949C1C0695115009F761E08881FE
:1012E0000E94331F60E089810E94331F82E390E0F7
:1012F0000E949C1C60E088810E94331F82E390E082
:101300000E949C1C89810E94A21F182F811104C079
:1013100061E089810E94331F82E390E00E949C1C5F
:1013200061E088810E94331F82E390E00E949C1C50
:1013300081E0111101C080E0DF91CF911F910F91E9
:101340000895AF92BF92DF92EF92FF920F931F9397
:10135000CF93DF9300D0CDB7DEB75C01F62EE42E3D
:1013600029837A830E94220960E4C5010E9448090A
:10137000C5010E942B09C5010E9422092981622F03
:1013800063706054C5010E944809DF2C0F2D7A81DB
:10139000172F802F8D198E1538F4F80161918F0168
:1013A000C5010E944809F5CFC5010E942B09C5015E
:1013B0000E942209F50162816058C5010E94480916
:1013C000C5010F900F90DF91CF911F910F91FF906A
:1013D000EF90DF90BF90AF900C942B094F925F92EB
:1013E0006F927F928F929F92AF92BF92CF92DF9235
:1013F000EF920F931F93CF93DF9300D000D0CDB720
:10140000DEB73C015B01322F202F84E7882E81E07C
:10141000982ECE0101966C01FC0101E01FE3D4017E
:101420005E904E904D01C501B2010E946D23611581
:10143000710561F4411106C0002321F08E2F8C1933
:10144000833011F4108313C0108211C0A62FAF7027
:10145000B0E0AC58BE4F8C918083649DC001659D07
:10146000900D749D900D1124A81AB90A00E0EE2089
:1014700039F08E2F8C19813019F480818068808337
:101480003196BCE68B16B1E09B0649F664E070E04D
:10149000631B71096C0D7D1D432FC3010E94A109BF
:1014A0000F900F900F900F90DF91CF911F910F91A0
:1014B000EF90DF90CF90BF90AF909F908F907F90F4
:1014C0006F905F904F9008956F70E62FF0E0EC58AA
:1014D000FE4F80810895FC0181E09081911101C04F
:1014E00080E00895CF93DF93EC01862F6E834F83C6
:1014F000288791E09D8760E00E94331F61E08E8124
:101500000E946C1F19861A861B861C86DF91CF915C
:101510000895DF92EF92FF920F931F93CF93DF9383
:10152000EC0161E08E810E946C1F6AEF70E080E048
:1015300090E00E94761C0E94471C09851A852B8525
:101540003C85601771078207930720F419861A8675
:101550001B861C862D85211111C009851A852B85B6
:101560003C85DC01CB01801B910BA20BB30B803DB2
:101570009740A105B10510F481E071C01D860E945D
:10158000471C69877A878B879C871C821B821A82FB
:101590001982188261E08E810E94331F60E08E8183
:1015A0000E946C1F64E170E080E090E00E94761C75
:1015B000F89461E08E810E946C1F88E290E00E94A6
:1015C0009C1C60E08E810E94331FF12CD12C81E0A5
:1015D000E12C082F10E08E810E94A21F8017910736
:1015E00041F4E39481E090E00E949C1C8FEFE812AC
:1015F000F2CF8E810E94A21F9FEFE916C9F023E06F
:101600002F1590F4F0FC10C09D2D9695969596950B
:10161000FE01E90FF11D9081990F908328852E1509
:1016200010F491609083D394F39495E5F912D0CFA0
:10163000789427E22D1590F42C8130E0488189813F
:1016400090E0840F911D4A81840F911D4B81840F7E
:10165000911D99272817390709F48ECF80E0DF9173
:10166000CF911F910F91FF90EF90DF900895CF924F
:10167000DF92EF92FF920F931F93CF93DF93EC01D2
:10168000162F0E94890A882309F450C08F818B305D
:1016900031F008F44BC08551823078F047C06A8140
:1016A00070E080E090E00E947C22112309F449C0A0
:1016B00020E030E040E151E42AC00A81602F6F77DA
:1016C00070E080E090E00E947E2220E030E040E880
:1016D00053E40E940A236B017C016B8170E080E07F
:1016E00090E00E947E229B01AC01C701B6010E94DE
:1016F0007F2120E030E040E251E40E94E32107FD39
:101700009058112309F120E030E040E151E40E94BB
:101710000A2320E030E040EA50E40E94E32120E088
:1017200030E040E052E40E947F210EC064E871E0A6
:1017300082EA96E00E947C2120E030E040EC5FE706
:1017400005C09B01AC0102C09B01AC01B901CA01FB
:10175000DF91CF911F910F91FF90EF90DF90CF908D
:101760000895CF92DF92EF92FF92CF93DF93EC0137
:101770000E94890A882379F18F818B3029F158F1F1
:101780008551823040F5688170E080E090E00E94F1
:101790007C2220E030E040E853E40E940A236B0101
:1017A0007C01698170E080E090E00E947E229B01D4
:1017B000AC01C701B6010E947F2120E030E040E289
:1017C00051E40E94E32111C0688170E080E090E064
:1017D0000E947C220AC064E871E082EA96E00E94DE
:1017E0007C2160E070E080EC9FE7DF91CF91FF907B
:1017F000EF90DF90CF9008951F93CF93DF931F92C8
:10180000CDB7DEB7162F81ED95E049830E94FB1816
:101810006CE470E081ED95E00E943419612F81ED58
:1018200095E00E94BC184981642F81ED95E00E94EB
:10183000BC1881ED95E00F90DF91CF911F910C9432
:101840004919462F67E00C94FC0B462F68E00C9476
:10185000FC0BCF93DF93EC0160E00E94210C60E071
:10186000CE010E94250C61E0CE01DF91CF910C9456
:10187000210C4F925F926F927F928F929F92AF92C4
:10188000BF92CF92DF92EF92FF920F931F93CF936D
:10189000DF9300D01F92CDB7DEB75B016A017901FB
:1018A00080E48B838A8389830E94471C2B013C013F
:1018B00081ED95E00E943518181619066CF40E9407
:1018C000471C6419750986099709653F71408105B0
:1018D000910574F380E072C081ED95E00E943D189F
:1018E00043E050E06CE470E081ED95E00E94271940
:1018F0000E94471C2B013C018E010F5F1F4F4801C6
:1019000081ED95E00E943518892B69F1C80188198D
:1019100099090397D4F40E94471C2B013C01F8015C
:101920008081803490F081ED95E00E943D18F801AF
:1019300080830E94471C64197509860997096333DF
:101940007105810591055CF3C5CF0E94471C0F5FAF
:101950001F4F6419750986099709653F7140810514
:10196000910574F2B7CF898124E0829FC0011124D0
:10197000282F87FF02C023E0280F25952595F50124
:1019800020838A81F4E08F9FC0011124282F87FFD4
:1019900002C023E0280F25952595F60120838B8131
:1019A000F4E08F9FC0011124282F87FF02C023E09D
:1019B000280F25952595F701208381E00F900F9042
:1019C0000F90DF91CF911F910F91FF90EF90DF90DB
:1019D000CF90BF90AF909F908F907F906F905F90CF
:1019E0004F9008951F920F920FB60F9211242F93CC
:1019F0003F934F935F936F937F938F939F93AF9397
:101A0000BF93EF93FF93E0914C04F0914D0409953F
:101A1000FF91EF91BF91AF919F918F917F916F91C6
:101A20005F914F913F912F910F900FBE0F901F909C
:101A30001895FC01A3E0440F551F661F771FAA9558
:101A4000D1F74115510581E06807710514F481E073
:101A50000EC033E075956795579547953A95D1F740
:101A60004115510581E0680771051CF482E082830D
:101A700031C023E075956795579547952A95D1F71D
:101A80004115510581E06807710514F483E0EFCF3B
:101A900092E075956795579547959A95D1F74115B9
:101AA000510581E06807710514F484E0E0CF82E01D
:101AB00075956795579547958A95D1F785E0828307
:101AC0004115510581E06807710524F04FEF5FEF84
:101AD00060E070E08FB78383F89451834083509324
:101AE00087004093860083818FBF80918100887F2B
:101AF00080938100809181009281892B8093810065
:101B000008951092800020E1209381000C94190D1B
:101B1000EFE6F0E080818E7F80830895E1E8F0E0D9
:101B20002081DC0112968C91282B208308950F933D
:101B30001F93CF93DF93EC018B01BA01A901141617
:101B400015061606170614F40E94190D1D830C8342
:101B500081E080936F00CE01DF91CF911F910F91B3
:101B60000C948E0D8091CF049091D00401969093A7
:101B7000D0048093CF0408950E94471C6093E90429
:101B80007093EA048093EB049093EC0482E00E944B
:101B9000A21F9093D8048093D704892BA9F060E00A
:101BA00088E00E946C1F8091E9049091EA04A09162
:101BB000EB04B091EC048093E5049093E604A093C9
:101BC000E704B093E80414C08091E9049091EA041A
:101BD000A091EB04B091EC048093E1049093E204B3
:101BE000A093E304B093E40461E088E00E946C1FDA
:101BF0004091E5045091E6046091E7047091E80497
:101C00008091E1049091E204A091E304B091E40496
:101C100084179507A607B70740F5481B590B6A0BB1
:101C20007B0B4093DD045093DE046093DF047093DC
:101C3000E0048091F1049091F204A091F304B0913A
:101C4000F404840F951FA61FB71F8093F10490938F
:101C5000F204A093F304B093F4041092E5041092FC
:101C6000E6041092E7041092E804089564E070E03E
:101C700081ED95E00E9418196DE477E181ED95E022
:101C80000E944C1966E877E181ED95E00E945119B8
:101C900041E050E06CEB7DE080E00C94731BAF9270
:101CA000BF92CF92DF92EF92FF920F931F93CF9349
:101CB000DF93CDB7DEB728970FB6F894DEBF0FBE1F
:101CC000CDBF80914C0590914D05049709F053C20A
:101CD00081E090E090934B0580934A0580914E05FA
:101CE00090914F058631910549F4609150057091AE
:101CF000510587EE91E00E9453073DC28531910561
:101D000021F587EE91E00E94DF08882309F433C2B1
:101D100065E075E087EE91E00E940C0881E0809319
:101D2000320580E090E08431910554F4FC01EE5CD2
:101D3000FA4FDC01AB5FBA4F2C9121830196F3CFB0
:101D4000909349058093480516C28130910539F476
:101D5000809150050E94A21F809347050CC28230DB
:101D6000910539F460915205809150050E946C1FD5
:101D700002C283309105B1F4809150050E948E1EFD
:101D800090930405809303059C0197FF02C02150A6
:101D90003F4F3093330560E071E00E946D238093E4
:101DA0003405E9C18430910549F460915205709180
:101DB0005305809150050E94AB1EDDC18530910511
:101DC00039F460915205809150050E94331FD3C1B0
:101DD0008730910509F04AC08091F9049091FA0486
:101DE000892B09F4C8C180915005909151058093C9
:101DF00050049093510461E00E94331F60E0809191
:101E000050040E946C1F82E090E00E949C1C61E0E4
:101E1000809150040E946C1F85E090E00E949C1C01
:101E200060E0809150040E946C1F60E0809150043B
:101E30000E94331F20E533EC40E050E061E08091E8
:101E400050040E94091E2AE330E040E050E00E9466
:101E5000A323CA01B90120E031E040E050E00E9434
:101E6000A32320931B0560931C0520C18830910596
:101E700041F481E08093330582E08093340586E06D
:101E800022C08431910511F580910205811107C0AE
:101E900080ED95E00E94290C81E08093020520E00E
:101EA00035E04FEF54E06EEF74E080ED95E00E9476
:101EB000390C8091FE04809333058091FF04809358
:101EC0003405809100058093350555C18E3191050B
:101ED00071F580910105811107C088EC95E00E94A1
:101EE000680381E08093010588EC95E00E946C0313
:101EF0008091CA05809333058091C905809334058C
:101F00008091C805809335058091CD058093360575
:101F10008091CC05809337059091CE05909338053C
:101F2000809339058091CB0580933A0524C188328E
:101F3000910509F05EC08091F9049091FA04892B13
:101F400009F419C18091520590915305009719F435
:101F500026E04BE00BC08130910519F426E046E104
:101F600005C00297029740F426E045E160915005D4
:101F70008AEB95E00E94720A60E08AEB95E00E948D
:101F8000370B6D837E838F8398878AEB95E00E9461
:101F9000B10B69837A838B839C8310924F041092D8
:101FA0004E04FE01359680E090E001962191DC011F
:101FB000A35EBA4F2C9384309105BCF384E090E08B
:101FC00090934F0480934E040196DC01A35EBA4FB8
:101FD000E1E0F0E0EC0FFD1FE80FF91F35972081DD
:101FE0002C938830910584F390934F0480934E0492
:101FF0005DC082339105D9F440915005509151054F
:1020000021E08091520590915305892B09F420E03D
:1020100061E0640FFA01329737E03E9FC0013F9FB5
:10202000900D112480579A4F0E943F06A4C0C39779
:1020300009F041C0209150053091510522503109DD
:1020400047E0429FC001439F900D112480579A4F53
:102050000E94340781114EC12EC08A30910509F0CB
:102060005AC68091F9049091FA04019709F083C04F
:102070008091D904809332058091ED049091EE0413
:10208000A091EF04B091F00480933305492F5A2FAB
:102090006B2F77274093ED045093EE046093EF0489
:1020A0007093F00440933405A09335051092FA0420
:1020B0001092F90460C080914E0590914F05C4972D
:1020C00009F431C180914E0590914F05C59791F467
:1020D00020915005309151052250310947E0429F2F
:1020E000C001439F900D112480579A4F0E943407DE
:1020F00081113EC180914E0590914F05C69709F41C
:1021000052C180914E0590914F05C79791F420914F
:102110005005309151052250310917E0129FC0013E
:10212000139F900D112480579A4F0E9434078111FC
:1021300086C180914E0590914F05C89709F458C10A
:1021400080914E0590914F058933910509F091C119
:102150006091500570915105AB014F5F5F4F88E86A
:1021600095E00E946C05E2E5F4E01192119224E002
:10217000E238F207D1F78091DB049091DC04892BDF
:10218000D9F10E94471C0091F5041091F6042091AA
:10219000F7043091F804601B710B820B930B6133D1
:1021A00075478105910540F181E090E09093DA0454
:1021B0008093D9048091F1049091F204A091F304EA
:1021C000B091F4048093ED049093EE04A093EF0497
:1021D000B093F0041092F1041092F2041092F30400
:1021E0001092F4040E94471C6093F5047093F60467
:1021F0008093F7049093F8048091D1049091D204D5
:10220000892B39F18091E301813019F52091E201A8
:102210008091D5049091D604213049F401968931FA
:10222000910554F01092D6041092D50409C001977C
:1022300097FF02C088E190E09093D6048093D50484
:1022400081E08093D3048091D5048093D4041092CC
:10225000E3018091CB049091CC04892B09F40CC646
:102260000E94471C0091C7041091C8042091C90422
:102270003091CA04601B710B820B930B613D774058
:102280008105910508F4F8C52091CF043091D00460
:102290004EE1429FC001439F900D112469E470E01C
:1022A0000E946D23E62F472F6093CD047093CE04D8
:1022B00081E08093C404862F972F60E071E00E9434
:1022C0006D238093C5042E2F342F37FF02C0215079
:1022D0003F4F3093C6041092D0041092CF040E9456
:1022E000471C6093C7047093C8048093C9049093FB
:1022F000CA04C2C561E08091520590915305892BB3
:1023000009F460E0209150053091510522503109C7
:1023100047E0429FC001439F900D112480579A4F80
:102320000E94DE0628CF20915005309151052250A1
:10233000310917E0129FC001139F900D112480579F
:102340009A4F0E943407882309F4BCCE209150058F
:102350003091510522503109129FC001139F900DF9
:1023600011246091520580579A4F0E94E40603CFD2
:1023700041E08091540590915505892B09F440E086
:1023800020915005309151052250310957E0529F5C
:10239000C001539F900D11246091520580579A4FB0
:1023A0000E94F606E8CE209150053091510522504A
:1023B000310917E0129FC001139F900D112480571F
:1023C0009A4F0E943407882309F49BCE2091500530
:1023D0003091510522503109129FC001139F900D79
:1023E00011246091520580579A4F0E941707C3CE5F
:1023F00020915005309151052250310917E0129F6C
:10240000C001139F900D112480579A4F0E943407EA
:10241000882309F495CE2091500530915105225022
:102420003109129FC001139F900D112480579A4FBC
:102430000E94300780933305909334059CCE80E052
:1024400090E0909154056091520570915305682772
:102450007927209150053091510522503109129F62
:10246000C001139F900D112480579A4F0E9495062A
:1024700082CE8A33910589F4E2E5F4E08FEF90E0B3
:102480008193919334E0E238F307D1F762E574E089
:1024900088E895E00E94FD056ECE8B33910549F4E6
:1024A000E2E5F4E01192119244E0E238F407D1F74A
:1024B000EDCF8C339105B9F420915205309153053D
:1024C00080E090E0F901EE0FFF1FEE5AFB4F4FEF57
:1024D00050E02817390711F4518340830196883161
:1024E0009105B9F7D3CF8D339105A9F42091520509
:1024F0003091530580E090E0F901EE0FFF1FEE5A96
:10250000FB4F2817390711F4118210820196883188
:102510009105B9F7BBCF8634910599F460915005C8
:102520007091510541E0460F9B0122503109C901CC
:10253000880F991F820F931F8A589A4F0E94030990
:102540001ACE8734910519F5209150053091510527
:1025500022503109C901880F991F820F931F8A5891
:102560009A4F0E946B0A882391F020915005309178
:10257000510522503109C901880F991F820F931FFD
:10258000609152058A589A4F0E941A09F4CD8091A1
:102590004E0590914F058834910559F520915005CD
:1025A0003091510522503109C901880F991F820FBE
:1025B000931F8A589A4F0E946B0A8823D1F080E0BB
:1025C00090E09091540560915205709153056827F1
:1025D0007927209150053091510522503109C901C8
:1025E000880F991F820F931FE12C00E024E040E048
:1025F00031C080914E0590914F058934910579F550
:10260000209150053091510522503109C901880FA0
:10261000991F820F931F8A589A4F0E946B0A882332
:10262000F1F080E090E09091540560915205709136
:102630005305682779272091500530915105225084
:102640003109C901880F991F820F931FE12C00E007
:1026500024E041E08A589A4F0E94EE098CCD809187
:102660004E0590914F058A34910519F5209150053A
:102670003091510522503109C901880F991F820FED
:10268000931F8A589A4F0E946B0A882391F02091D9
:1026900050053091510522503109C901880F991F09
:1026A000820F931F609154058A589A4F0E94640AC2
:1026B00097C080914E0590914F058B34910589F418
:1026C000209150053091510522503109C901880FE0
:1026D000991F820F931F8A589A4F0E946B0A81118B
:1026E0007DC080914E0590914F058C34910509F085
:1026F00087C0209150053091510522503109C90100
:10270000880F991F820F931F8A589A4F0E946B0A55
:10271000882309F475C080915205909153050AE011
:1027200010E0B8010E946D232091500530915105B1
:1027300022503109C901880F991F820F931F8A58AF
:102740009A4F0E94640A89838091520590915305A3
:10275000B8010E946D2320915005309151052250FF
:102760003109A901440F551F420F531F682FCA0199
:102770008A589A4F0E94640A80688A83809154051F
:1027800090915505B8010E946D232091500530911C
:10279000510522503109C901880F991F820F931FDB
:1027A0008A589A4F0E94640A8B83809154059091B5
:1027B0005505B8010E946D232091500530915105B7
:1027C00022503109A901440F551F420F531F682F92
:1027D000CA018A589A4F0E94640A78C080915405B1
:1027E0008983209150053091510522503109C9014A
:1027F000880F991F820F931F2091520541E091C0CD
:1028000080914E0590914F058D34910509F042C09D
:10281000209150053091510522503109C901880F8E
:10282000991F820F931F8A589A4F0E946B0A882320
:1028300089F110915205A0905405B0905505AA0C4D
:10284000BB1CAA0CBB1CC12CD12CCA14DB040CF081
:1028500092CC812F0E948E1EBC0120915005309198
:10286000510522503109C901880F991F820F931F0A
:10287000E12C00E024E040E08A589A4F0E94EE09E3
:102880006AEF70E080E090E00E94761C5FEFC51A6E
:10289000D50ADBCF80914E0590914F058E3491057E
:1028A000B9F4209150053091510522503109C901E8
:1028B000880F991F820F931F8A589A4F0E946B0AA4
:1028C000882331F08FEF89838A838B838C831CC0AC
:1028D00080914E0590914F058F34910551F52091CF
:1028E00050053091510522503109C901880F991FB7
:1028F000820F931F8A589A4F0E946B0A8823C9F04F
:1029000019821A821B821C82209150053091510538
:1029100022503109C901880F991F820F931F20E0AF
:1029200044E0BE016F5F7F4F8A589A4F0E94A10911
:1029300022CC80914E0590914F058A35910569F41E
:10294000809150058093FB04809152058093FC0494
:10295000809154058093FD040ECC8B359105B1F424
:10296000609150057091510541E0460F9B01225046
:10297000310955E0529FC001539F900D11242091C1
:102980005205885A9A4F0E943C05F5CB8C3591052B
:1029900009F044C0609150057091510541E0460F27
:1029A0009B012250310955E0529FC001539F900D69
:1029B000112420915205885A9A4F0E943C0510918B
:1029C000540512FBDD24D0F8D19411FBCC24C0F8BF
:1029D000C19411701195E12CF12CE5E0BE2E80918F
:1029E000520590915305E816F9060CF0C4CB60919E
:1029F00050057091510562507109B69EC001B79E95
:102A0000900D1124012F2C2D4D2D6E2D885A9A4F8B
:102A10000E94CF048FEFE81AF80AE1CF8D359105B7
:102A200009F074C0209152053091530580915005F2
:102A300090915105232BB1F49C012250310945E0BE
:102A4000429FC001439F900D11240091FD042091ED
:102A5000FC044091FB0460915405885A9A4F0E94EF
:102A6000CF0489CB9C012250310945E0429FC0012F
:102A7000439F900D1124885A9A4F0E946905E12CBA
:102A8000F12CC82ED12C15E0EC14FD040CF073CB06
:102A900020915205309153052130310541F4809148
:102AA000540590915505E816F906B1F42BC0223073
:102AB000310541F480915405909155058E159F057F
:102AC0005CF420C023303105E9F4809154059091E5
:102AD0005505E816F906B4F02091500530915105DE
:102AE00022503109129FC001139F900D11240091B3
:102AF000FD042091FC044091FB046E2D885A9A4FEE
:102B00000E94CF042FEFE21AF20ABECF8E35910554
:102B100009F052C080915405909155051816190678
:102B200034F081E090E09093550580935405209116
:102B30005005309151052250310945E0429FC001B6
:102B4000439F900D1124885A9A4F0E946905E09086
:102B50005205F0905305C82ED12C15E0EC14FD045D
:102B60000CF009CB8091520590915305A701481BA9
:102B7000590BCA0160915405709155050E946D234F
:102B8000892BB1F420915005309151052250310923
:102B9000129FC001139F900D11240091FD042091FC
:102BA000FC044091FB046E2D885A9A4F0E94CF047A
:102BB0005FEFE51AF50AD2CF8F35910509F084C091
:102BC00020915005309151052250310945E0429F36
:102BD000C001439F900D1124885A9A4F0E946905A5
:102BE000182F8091540590915505C12ED12CE12CC0
:102BF000F12C892B99F515E0EC14FD040CF0BBCAFF
:102C000020915205309153058091500590915105C6
:102C1000E216F3067CF49C0122503109129FC00198
:102C2000139F900D11240091FD042091FC0440910C
:102C3000FB040BC09C0122503109129FC001139F5D
:102C4000900D112400E020E040E06E2D885A9A4F4C
:102C50000E94CF048FEFE81AF80ACECF75E0B72EA6
:102C600096012E193F0909F486CA80915205909168
:102C70005305A601481B590BCA01409150055091BC
:102C80005105612F6E19425051092817390764F018
:102C9000B49EC001B59E900D11240091FD042091B9
:102CA000FC044091FB0408C0B49EC001B59E900D89
:102CB000112400E020E040E0885A9A4F0E94CF049F
:102CC0005FEFE51AF50ACCCF8E309105C1F441E0F3
:102CD00050E06CEB7DE080E00E94731B81E090E0AF
:102CE0009093DC048093DB040E94471C6093F504FE
:102CF0007093F6048093F7049093F80453C08F30D8
:102D0000910509F0AAC980E00E94931B1092DC048F
:102D10001092DB0447C08031910559F482EE91E0B6
:102D20000E94090481E090E09093D2048093D10442
:102D300039C08131910549F482EE91E00E941C0472
:102D40001092D2041092D10416CA8231910501F575
:102D500060E082E00E94331F43E050E062EB7DE0E0
:102D600080E00E94731B1092D0041092CF040E9446
:102D7000471C6093C7047093C8048093C904909360
:102D8000CA0481E090E09093CC048093CB040AC005
:102D90008D30910561F41092CC041092CB0480E048
:102DA0000E94931B10924F0510924E05E4C9843681
:102DB0009105D1F58091F9049091FA04019709F0F9
:102DC000DAC980915005909151058130910549F4FF
:102DD000809152050E94AD0080ED97E00E94530162
:102DE00065C98230910579F480915205909153051F
:102DF000813491051CF48093830402C010928304F3
:102E00001092820453C9039709F050C9609183045A
:102E1000662309F44BC980918204681347C984E88A
:102E200094E00E944A0242C98536910509F0A3C97F
:102E30008091F9049091FA04019709F09CC980915E
:102E4000820490918304891708F030C9E0E5F5E029
:102E50008F5F20813296A82FB0E0AD57BB4F2C93E7
:102E600025E0E635F20719F4809382041FC989131F
:102E7000EFCF909382041AC928960FB6F894DEBF5C
:102E80000FBECDBFDF91CF911F910F91FF90EF90BB
:102E9000DF90CF90BF90AF9008950F931F93CF9383
:102EA000DF9301E010E081ED95E00E943518892B59
:102EB00041F181ED95E00E943518049761F410927C
:102EC0004B0510924A0510924D0510924C05109337
:102ED000FA040093F904C0914C05D0914D05CE0140
:102EE000019690934D0580934C0581ED95E00E94ED
:102EF0003D18FE01EE0FFF1FE25BFA4F91838083C6
:102F0000D2CFDF91CF911F910F91089580914E05FF
:102F100090914F05019731F46091470581ED95E05F
:102F20000E94BC1880914E0590914F058330910509
:102F300011F0C89741F443E050E062E375E081EDA1
:102F400095E00E948F1880914E0590914F0507974C
:102F500061F443E050E06AE175E081ED95E00E94A4
:102F60008F1810924F0510924E0580914E0590914A
:102F70004F058830910511F0449741F444E050E04A
:102F800062E375E081ED95E00E948F1880914E0517
:102F900090914F054E9741F449E050E062E375E0AF
:102FA00081ED95E00E948F1880914E0590914F051C
:102FB000889761F449E050E06DE175E081ED95E0BE
:102FC0000E948F1810924F0510924E0580914E0569
:102FD00090914F05459751F445E150E062E375E06B
:102FE00081ED95E00E948F181092320580914E0578
:102FF00090914F050A9781F444E050E062E375E058
:1030000081ED95E00E948F181092DA041092D90495
:1030100010924F0510924E0580914E0590914F05EC
:103020000B9771F442E050E063ED74E081ED95E0C0
:103030000E948F181092D30410924F0510924E05E3
:1030400080914E0590914F050C9771F443E050E04C
:1030500064EC74E081ED95E00E948F181092C40436
:1030600010924F0510924E0508958091050690E04C
:1030700020910606821B91090895209106068091F1
:103080000506281750F4E22FF0E0E95FF94F808140
:1030900090E02F5F2093060608958FEF9FEF08952D
:1030A000E091060680910506E81730F4F0E0E95F4C
:1030B000F94F808190E008958FEF9FEF0895089574
:1030C000E091DD05F091DE053097E1F030910606E4
:1030D000209105063217B0F040E0242F30E026178B
:1030E000370754F4DC01A20FB31F5C91D901A95F2B
:1030F000B94F5C934F5FF1CF1092060660930506BF
:10310000CB0109940895E091DF05F091E005309737
:1031100029F01092E3051092E20509940895CF92E8
:10312000DF92EF92FF920F931F93CF93DF937C0177
:10313000CB018A012091E105222389F0EB016B018B
:10314000C40ED51ECC15DD0569F06991D701ED914E
:10315000FC910190F081E02DC7010995F3CF642F18
:103160000E94131AC801DF91CF911F910F91FF9018
:10317000EF90DF90CF900895CF93DF931F92CDB75C
:10318000DEB769832091E1052223D1F02091E20589
:10319000203240F021E030E0FC013383228380E0E4
:1031A00090E015C08091E305E82FF0E0EC51FA4F74
:1031B000998190838F5F8093E3058093E20505C03A
:1031C00061E0CE0101960E94131A81E090E00F9019
:1031D000DF91CF910895FC011382128248EE53E0F3
:1031E00060E070E0448355836683778382E991E0F1
:1031F000918380830895109206061092050610921E
:10320000E3051092E2050C945A19CF93DF93EC0179
:10321000862F0E94781983E898E10E94311A80E68F
:1032200098E10E942C1ACE01DF91CF910C94FB18EB
:103230000C940519862F413208F040E267E076E0F1
:103240000E947C191092060680930506089521E0DD
:103250000C941A1981E08093E105609304061092A2
:10326000E3051092E20508950C942A190F93062F96
:1032700021E04091E20564EE75E0809104060E9431
:10328000C0191092E3051092E2051092E1050F912A
:10329000089561E00C9436197093DE056093DD05A6
:1032A00008957093E0056093DF05089581ED95E042
:1032B0000C94EB181092940681E080939206109281
:1032C000910661E082E10E946C1F61E083E10E944F
:1032D0006C1FE9EBF0E080818E7F808380818D7FA1
:1032E000808388E48093B80085E48093BC000895CF
:1032F000880F8093BA000895413208F03FC0909142
:1033000094069111FCCF91E090939406209392063D
:103310002FEF2093270610926C06240F20936B0644
:103320009093930690919306880F892B8093930630
:1033300080919106813041F410929106809193061C
:103340008093BB0085EC01C085EE8093BC0080912A
:1033500094068130E1F380916C06841710F440915B
:103360006C062DE636E0FB01D9018A2F821B8417FB
:1033700018F48D918193F9CF842F089580E00895FA
:103380000F93413208F046C0909194069111FCCF02
:1033900092E090939406009392069FEF90932706F5
:1033A00010926C0640936B06FB016DE676E0DB0144
:1033B0009A2F961B941718F491919D93F9CF109220
:1033C000930690919306880F892B809393068091A2
:1033D0009106813041F4109291068091930680937A
:1033E000BB0085EC01C085EE8093BC00222321F058
:1033F000809194068230E1F3809127068F3F61F03F
:1034000080912706803251F080912706803341F465
:1034100083E007C081E005C080E003C082E001C016
:1034200084E00F910895613298F42091940624303D
:1034300089F460934906FC018BE496E0DC012A2FB5
:10344000281B261718F421912D93F9CF80E00895B9
:1034500081E0089582E0089590938E0680938D0612
:1034600008959093900680938F06089585ED80933C
:10347000BC008091BC0084FDFCCF1092940608959E
:1034800085EC8093BC001092940608951F920F92D1
:103490000FB60F9211242F933F934F935F936F9327
:1034A0007F938F939F93AF93BF93EF93FF938091FD
:1034B000B900887F803609F49CC068F5883209F429
:1034C0005BC090F4803109F454C038F4882309F4C7
:1034D000F5C0883009F44DC0F5C0883109F44CC0FE
:1034E000803209F45DC0EEC0803409F468C048F44D
:1034F000803309F455C0883309F0E4C0809327066F
:10350000A8C0803509F44FC0883509F45DC08834FF
:1035100009F0D8C0D5C0883909F4C6C0A8F48837E6
:1035200009F467C038F4883609F463C0803709F4B9
:1035300060C0C8C0883809F4B7C0803909F45FC0DA
:10354000803809F0BFC05BC0803B09F485C038F407
:10355000803A09F466C0883A09F47EC0B3C0803C62
:1035600009F4A6C0883C09F4A3C0883B09F489C0CB
:10357000A9C08091930610C090916C0680916B0653
:10358000981770F5E0916C0681E08E0F80936C06C1
:10359000F0E0E359F94F80818093BB0085EC85C052
:1035A000809327068DC0E0916C0681E08E0F80939A
:1035B0006C068091BB00F0E0E359F94F8083909155
:1035C0006C0680916B066DC0E0916C0681E08E0FF9
:1035D00080936C068091BB00F0E0E359F94F808343
:1035E0008091920681116CC081E08093910684EAFB
:1035F00060C083E08093940610922806CFCF80911C
:103600002806803208F050C0E091280681E08E0F35
:10361000809328068091BB00F0E0E75DF94F80833E
:10362000BDCF80912806803230F4E0912806F0E08A
:10363000E75DF94F10820E94361A6091280670E00B
:10364000E0918D06F0918E0689E296E00995109240
:1036500028060E94401A36C084E080939406109297
:103660004A0610924906E0918F06F091900609955E
:1036700080914906811105C081E08093490610922E
:103680004B06E0914A0681E08E0F80934A06F0E0F7
:10369000E55BF94F80818093BB0090914A06809151
:1036A0004906981708F47ACF85E88093BC000AC0D1
:1036B00085EC8093BC001092940604C010922706FB
:1036C0000E94361AFF91EF91BF91AF919F918F9118
:1036D0007F916F915F914F913F912F910F900FBE0E
:1036E0000F901F9018958230E8F4E82FF0E0EE0F6D
:1036F000FF1FEB56F94F71836083813041F0809159
:1037000069008C7F842B80936900E89A08958091EA
:103710006900440F551F440F551F837F842B8093EE
:103720006900E99A0895823068F4813011F0E898D0
:1037300001C0E998E82FF0E0EE0FFF1FEB56F94FBC
:103740001182108208951F920F920FB60F921124CA
:103750002F933F934F935F936F937F938F939F9399
:10376000AF93BF93EF93FF93809195069091960648
:10377000892B29F0E0919506F09196060995FF9125
:10378000EF91BF91AF919F918F917F916F915F91D9
:103790004F913F912F910F900FBE0F901F90189552
:1037A0001F920F920FB60F9211242F933F934F93B6
:1037B0005F936F937F938F939F93AF93BF93EF9399
:1037C000FF938091970690919806892B29F0E091BC
:1037D0009706F09198060995FF91EF91BF91AF91EF
:1037E0009F918F917F916F915F914F913F912F9119
:1037F0000F900FBE0F901F9018951F920F920FB64B
:103800000F9211242F933F938F939F93AF93BF9366
:1038100080919A0690919B06A0919C06B0919D067E
:103820003091990623E0230F2D3720F40196A11D36
:10383000B11D05C026E8230F0296A11DB11D2093DE
:10384000990680939A0690939B06A0939C06B0934A
:103850009D0680919E0690919F06A091A006B09132
:10386000A1060196A11DB11D80939E0690939F060F
:10387000A093A006B093A106BF91AF919F918F91A5
:103880003F912F910F900FBE0F901F9018952FB75B
:10389000F89460919A0670919B0680919C06909195
:1038A0009D062FBF08953FB7F89480919E06909192
:1038B0009F06A091A006B091A10626B5A89B05C0C1
:1038C0002F3F19F00196A11DB11D3FBF6627782F2C
:1038D000892F9A2F620F711D811D911D42E0660F85
:1038E000771F881F991F4A95D1F70895CF92DF92CD
:1038F000EF92FF92CF93DF936B017C010E94531CE8
:10390000EB01C114D104E104F10479F00E94531CCD
:103910006C1B7D0B683E7340A0F381E0C81AD10890
:10392000E108F108C851DC4FECCFDF91CF91FF9057
:10393000EF90DF90CF9008950197009739F0880FAE
:10394000991F880F991F02970197F1F708957894AE
:1039500084B5826084BD84B5816084BD85B5826094
:1039600085BD85B5816085BDEEE6F0E08081816032
:103970008083E1E8F0E01082808182608083808132
:1039800081608083E0E8F0E0808181608083E1EB0A
:10399000F0E0808184608083E0EBF0E080818160F2
:1039A0008083EAE7F0E080818460808380818260A8
:1039B0008083808181608083808180688083109291
:1039C000C1000895CF93DF938230910510F482E017
:1039D00090E0E0914E07F0914F0720E030E0A0E04A
:1039E000B0E0309739F14081518148175907B8F05C
:1039F0004817590771F482819381109729F0139623
:103A00009C938E9312972CC090934F0780934E07F0
:103A100027C02115310531F04217530718F0A901CD
:103A2000DB0101C0EF019A01BD01DF010280F381DA
:103A3000E02DD7CF21153105F9F0281B390B2430A3
:103A4000310580F48A819B816115710521F0FB01AC
:103A50009383828304C090934F0780934E07FE01A7
:103A6000329644C0FE01E20FF31F819391932250DE
:103A70003109398328833AC020914C0730914D0792
:103A8000232B41F42091490130914A0130934D0795
:103A900020934C07209147013091480121153105B1
:103AA00041F42DB73EB740914B0150914C01241B7E
:103AB000350BE0914C07F0914D07E217F307A0F4A6
:103AC0002E1B3F0B2817390778F0AC014E5F5F4F74
:103AD0002417350748F04E0F5F1F50934D07409352
:103AE0004C078193919302C0E0E0F0E0CF01DF91B9
:103AF000CF910895CF93DF93009709F487C0FC011D
:103B0000329713821282C0914E07D0914F072097AF
:103B100081F420813181280F391F80914C079091C9
:103B20004D078217930779F5F0934D07E0934C0703
:103B30006DC0DE0120E030E0AE17BF0750F41296F2
:103B40004D915C9113979D014115510509F1DA01E1
:103B5000F3CFB383A28340815181840F951F8A17CD
:103B60009B0771F48D919C911197840F951F02967C
:103B70009183808312968D919C9113979383828376
:103B80002115310529F4F0934F07E0934E073EC00D
:103B9000D9011396FC93EE9312974D915D91A40F6A
:103BA000B51FEA17FB0779F480819181840F951F77
:103BB0000296D90111969C938E93828193811396DC
:103BC0009C938E931297E0E0F0E08A819B810097AE
:103BD00019F0FE01EC01F9CFCE010296288139815E
:103BE000820F931F20914C0730914D0728173907FA
:103BF00069F4309729F410924F0710924E0702C0D3
:103C000013821282D0934D07C0934C07DF91CF915E
:103C10000895CF92DF92EF92FF920F931F93CF936D
:103C2000DF9390E0FC01E458FF4FD491FC01E05792
:103C3000FF4F7491611102C0C0E001C0CD2FDA01C5
:103C4000C901BF70672F70E0660F771F6C557F4FFB
:103C500000E010E09801FB01E590F490F70140814D
:103C60004D234C131EC0680179014FEFC41AD40ACA
:103C7000E40AF40A081719072A073B0709F442C0A7
:103C800097018601E8CF68017901FFEFCF1ADF0ABB
:103C9000EF0AFF0A081719072A073B0799F197014E
:103CA0008601FB01E590F490F70140814D234C1310
:103CB000EACF801B910BA20BB30B20E030E0A901EF
:103CC000FB01E590F490F701F080FD22FC120AC0A0
:103CD000281739074A075B07A9F02F5F3F4F4F4F5F
:103CE0005F4FEECFA5E1B0E00E94C223605F7F4F3F
:103CF0008F4F9F4F24E096958795779567952A95E6
:103D0000D1F703C060E070E0CB01DF91CF911F914C
:103D10000F91FF90EF90DF90CF9008958E3008F0D4
:103D20008E50877020914D0190E4299F90011124BD
:103D3000822B80937C0080917A00806480937A004B
:103D400080917A0086FDFCCF8091780020917900E7
:103D500090E0922B08951F93CF93DF93182FEB01E0
:103D600061E00E94331F209711F460E004C0CF3F50
:103D7000D10539F461E0812FDF91CF911F910C942F
:103D80006C1FE12FF0E0E859FF4FE491E330F9F0C8
:103D900048F4E130B9F0E230A1F584B5806284BD29
:103DA000C8BD34C0E630E9F0E73019F1E43049F538
:103DB00080918000806280938000D0938B00C093BC
:103DC0008A0024C084B5806884BDC7BD1FC08091AF
:103DD0008000806880938000D0938900C093880021
:103DE00015C08091B00080688093B000C093B3008C
:103DF0000DC08091B00080628093B000C093B40089
:103E000005C0C038D1050CF0B5CFAFCFDF91CF9151
:103E10001F910895833081F028F4813099F0823029
:103E2000A1F008958630A9F08730B9F08430D1F43C
:103E3000809180008F7D03C0809180008F77809378
:103E40008000089584B58F7702C084B58F7D84BDCE
:103E500008958091B0008F7703C08091B0008F7D6E
:103E60008093B0000895CF93DF9390E0FC01E45875
:103E7000FF4F2491FC01E057FF4F8491882349F1C3
:103E800090E0880F991FFC01E854FF4FA591B49171
:103E900082559F4FFC01C591D4919FB7611108C015
:103EA000F8948C91209582238C93888182230AC078
:103EB000623051F4F8948C91322F309583238C9397
:103EC0008881822B888304C0F8948C91822B8C93F8
:103ED0009FBFDF91CF9108950F931F93CF93DF93EF
:103EE0001F92CDB7DEB7282F30E0F901E859FF4F18
:103EF0008491F901E458FF4F1491F901E057FF4F05
:103F000004910023C9F0882321F069830E940A1FCD
:103F10006981E02FF0E0EE0FFF1FE255FF4FA59102
:103F2000B4919FB7F8948C91611103C010958123CF
:103F300001C0812B8C939FBF0F90DF91CF911F9178
:103F40000F910895CF93DF93282F30E0F901E859BE
:103F5000FF4F8491F901E458FF4FD491F901E057E4
:103F6000FF4FC491CC2391F081110E940A1FEC2FC6
:103F7000F0E0EE0FFF1FEC55FF4FA591B4912C918F
:103F80002D2381E090E021F480E002C080E090E009
:103F9000DF91CF9108950E94A71C0E94360EC4EABB
:103FA000D0E20E944F0E2097E1F30E94A420F9CFA7
:103FB000FC0124853585F901E05CFF4F808191810A
:103FC000329620813181821B930B8F73992708953C
:103FD000FC0184859585FC01E05CFF4F40815181A7
:103FE0003296208131814217530741F00190F081D0
:103FF000E02DE80FF91F808190E008958FEF9FEF8B
:104000000895FC0184859585FC01E05CFF4F4081AB
:1040100051813296208131814217530779F0A08176
:10402000B181A80FB91F8C91208131812F5F3F4F43
:104030002F7333273183208390E008958FEF9FEF14
:104040000895FC0181A1882329F0A489B5898C9168
:1040500086FFFBCF11A20895CF93DF93FC01268545
:104060003785D901A05CBF4F8D919C911197019626
:104070008F739927E901CE5BDF4F488159818417FF
:104080009507D9F30D90BC91A02DA20FB31F6C938F
:10409000A685B785A05CBF4F11969C938E93A68989
:1040A000B7892C9181E090E0078C02C0880F991F9E
:1040B0000A94E2F7282B2C9381E081A30488F589E8
:1040C000E02D80818064808381E090E0DF91CF915A
:1040D000089508951F920F920FB60F9211242F93F7
:1040E0003F934F938F939F93EF93FF938091C000E3
:1040F00082FD1CC04091C6008091480790914907FD
:1041000001968F73992720914A0730914B078217A8
:10411000930771F0E0914807F0914907E85FF84F85
:104120004083909349078093480702C08091C6005E
:10413000FF91EF919F918F914F913F912F910F9010
:104140000FBE0F901F90189582EA96E00E94D81F2C
:10415000892B11F00C94692008951F920F920FB6CD
:104160000F9211242F933F938F939F93EF93FF937D
:104170002091040730910507809106079091070769
:104180002817390731F48091C1008F7D8093C100D9
:1041900014C0E0910607F0910707EC53F94F208116
:1041A000809106079091070701968F739927909346
:1041B0000707809306072093C600FF91EF919F9118
:1041C0008F913F912F910F900FBE0F901F901895D8
:1041D0001092A5061092A40688EE93E0A0E0B0E04D
:1041E0008093A6069093A706A093A806B093A9066D
:1041F00082EA91E09093A3068093A20688E097E07C
:104200009093AF068093AE0684EC96E09093B1064F
:104210008093B00685EC90E09093B3068093B2064D
:1042200084EC90E09093B5068093B40680EC90E027
:104230009093B7068093B60681EC90E09093B90610
:104240008093B80682EC90E09093BB068093BA0608
:1042500086EC90E09093BD068093BC0684E080934A
:10426000BE0683E08093BF0687E08093C00685E0AA
:104270008093C10681E08093C2060895CF92DF92B9
:10428000EF92FF920F931F93CF93DF936C017A010C
:10429000EB01E60EF71E00E010E0CE15DF0561F041
:1042A0006991D601ED91FC910190F081E02DC6015C
:1042B0000995080F191FF1CFC801DF91CF911F9108
:1042C0000F91FF90EF90DF90CF90089561157105E9
:1042D00081F0DB010D900020E9F7AD01415051095B
:1042E000461B570BDC01ED91FC910280F381E02D20
:1042F000099480E090E008950C9466215058BB2703
:10430000AA270ED04DC13ED130F043D120F031F478
:104310009F3F11F41EF433C10EF4E095E7FB29C171
:10432000E92F4FD180F3BA17620773078407950707
:1043300018F071F49EF567C10EF4E0950B2EBA2FBC
:10434000A02D0B01B90190010C01CA01A00111249B
:10435000FF27591B99F0593F50F4503E68F11A1647
:10436000F040A22F232F342F4427585FF3CF4695D8
:1043700037952795A795F0405395C9F77EF41F16FA
:10438000BA0B620B730B840BBAF09150A1F0FF0FC4
:10439000BB1F661F771F881FC2F70EC0BA0F621FB0
:1043A000731F841F48F4879577956795B795F795A0
:1043B0009E3F08F0B3CF9395880F08F09927EE0F32
:1043C0009795879508950CD0EBC0E3D040F0DAD0F4
:1043D00030F021F45F3F19F0CCC0511115C1CFC0AE
:1043E000F0D098F39923C9F35523B1F3951B550BDE
:1043F000BB27AA2762177307840738F09F5F5F4FB8
:10440000220F331F441FAA1FA9F333D00E2E3AF0F8
:10441000E0E830D091505040E695001CCAF729D012
:10442000FE2F27D0660F771F881FBB1F2617370761
:104430004807AB07B0E809F0BB0B802DBF01FF2791
:1044400093585F4F2AF09E3F510568F092C0DCC040
:104450005F3FECF3983EDCF3869577956795B795CB
:10446000F7959F5FC9F7880F911D9695879597F9E6
:104470000895E1E0660F771F881FBB1F621773075F
:104480008407BA0720F0621B730B840BBA0BEE1F74
:1044900088F7E095089504D06894B111B5C00895E7
:1044A00098D088F09F5790F0B92F9927B751A0F076
:1044B000D1F0660F771F881F991F1AF0BA95C9F7B8
:1044C00012C0B13081F09FD0B1E008959CC0672F39
:1044D000782F8827B85F39F0B93FCCF38695779568
:1044E0006795B395D9F73EF4909580957095619551
:1044F0007F4F8F4F9F4F0895E89409C097FB3EF47C
:1045000090958095709561957F4F8F4F9F4F992320
:10451000A9F0F92F96E9BB279395F695879577959E
:104520006795B795F111F8CFFAF4BB0F11F460FF5E
:104530001BC06F5F7F4F8F4F9F4F16C0882311F0B6
:1045400096E911C0772321F09EE8872F762F05C0CA
:10455000662371F096E8862F70E060E02AF09A9565
:10456000660F771F881FDAF7880F9695879597F95A
:10457000089597F99F6780E870E060E008959FEFE5
:1045800080EC089500240A941616170618060906EA
:10459000089500240A9412161306140605060895B9
:1045A000092E0394000C11F4882352F0BB0F40F441
:1045B000BF2B11F460FF04C06F5F7F4F8F4F9F4F81
:1045C000089557FD9058440F551F59F05F3F71F003
:1045D0004795880F97FB991F61F09F3F79F087956A
:1045E0000895121613061406551FF2CF4695F1DFF3
:1045F00008C0161617061806991FF1CF8695710583
:10460000610508940895E894BB2766277727CB01B6
:1046100097F908950BD0C4CFB5DF28F0BADF18F0B2
:10462000952309F0A6CFABCF1124EECFCADFA0F3BC
:10463000959FD1F3950F50E0551F629FF001729F37
:10464000BB27F00DB11D639FAA27F00DB11DAA1F56
:10465000649F6627B00DA11D661F829F2227B00DA3
:10466000A11D621F739FB00DA11D621F839FA00D2E
:10467000611D221F749F3327A00D611D231F849F7E
:10468000600D211D822F762F6A2F11249F575040D5
:104690008AF0E1F088234AF0EE0FFF1FBB1F661F70
:1046A000771F881F91505040A9F79E3F510570F029
:1046B00060CFAACF5F3FECF3983EDCF38695779509
:1046C0006795B795F795E7959F5FC1F7FE2B880F24
:1046D000911D9695879597F9089597FB072E16F4E7
:1046E000009407D077FD09D00E94CD2307FC05D0A8
:1046F0003EF4909581959F4F0895709561957F4FF9
:104700000895A1E21A2EAA1BBB1BFD010DC0AA1F12
:10471000BB1FEE1FFF1FA217B307E407F50720F02A
:10472000A21BB30BE40BF50B661F771F881F991FA5
:104730001A9469F760957095809590959B01AC01EE
:10474000BD01CF010895052E97FB1EF400940E9431
:10475000BA2357FD07D00E94812307FC03D04EF4F3
:104760000C94BA2350954095309521953F4F4F4F6B
:104770005F4F089590958095709561957F4F8F4F0D
:104780009F4F08950E94E723A59F900DB49F900D21
:10479000A49F800D911D11240895AA1BBB1B51E1FC
:1047A00007C0AA1FBB1FA617B70710F0A61BB70BA1
:1047B000881F991F5A95A9F780959095BC01CD0146
:1047C0000895EE0FFF1F0590F491E02D0994A29F2C
:1047D000B001B39FC001A39F700D811D1124911DD5
:1047E000B29F700D811D1124911D08950F931F9389
:1047F000CF93DF93869F8001879F100D969F100DAA
:104800001124C8010E94E21CEC01009729F0A801C4
:1048100060E070E00E941224CE01DF91CF911F91E1
:104820000F910895DC0101C06D9341505040E0F7B5
:064830000895F894FFCF8B
:104836000C0B0A2A2A2A2A2A2A382C0000000000F1
:104846000000000000000000000000000000000062
:104856000000000000000000000000000000000052
:104866000000000000000000000000000000000042
:10487600000000000000000000500780000100005A
:1048860001000800400000010004050D0D0E13157F
:1048960016191A1C232526292A2C323401000A004F
:1048A6006400E8033F065B4F666D7D077F6F777C8C
:1048B600395E797152656164206661696C00000039
:1048C6000000BC188F1835183D1850185F180000E6
:0E48D60000002C203E21D81F0120E81F2120C9
:00000001FF
