:100000000C9464000C94A01A0C94CD1A0C948C00DF
:100010000C948C000C9414040C948C000C94930F8E
:100020000C948C000C948C000C948C000C94B216E4
:100030000C948C000C9429120C948C000C948C0061
:100040000C94FA1A0C948C000C944A1D0C947C1D90
:100050000C948C000C948C000C948C000C948C00F0
:100060000C9443190C948C0000000008000201005D
:100070000003040700000000000000000102040863
:100080001020408001020408102001020408102002
:10009000040404040404040402020202020203032E
:1000A00003030303000000002300260029000000D2
:1000B0000000250028002B0000000000240027007D
:1000C0002A005D045318AC1D11241FBECFEFD8E0E9
:1000D000DEBFCDBF11E0A0E0B1E0EAE9F5E402C087
:1000E00005900D92AE3AB107D9F727E0AEEAB1E03C
:1000F00001C01D92A930B207E1F710E0C8ECD0E0D2
:1001000004C02297FE010E947D21C23CD107C9F79D
:100110000E94F01D0C94CB220C940000CF92DF9231
:10012000EF92FF920F931F93E82FF92F05C0015014
:1001300011092109310961F1908196239417B9F3CE
:1001400005C0015011092109310911F1908196234F
:100150009413F7CFC12CD12CE12CF12C0AC08FEFD6
:10016000C81AD80AE80AF80A0C151D052E053F051D
:1001700079F080818623841791F36C2D7D2D8E2D4F
:100180009F2D1F910F91FF90EF90DF90CF900895DA
:1001900060E070E080E090E01F910F91FF90EF90A1
:1001A000DF90CF900895CF93DF93EC0160E08881DA
:1001B0000E94BF1C84E190E00E949B1B61E088814B
:1001C0000E94BF1C84E190E0DF91CF910C949B1BB7
:1001D0000F931F93CF93DF93EC01062F18E007FFD7
:1001E00002C061E001C060E089810E94BF1CCE01B5
:1001F0000E94D300000F115091F7DF91CF911F9112
:100200000F910895EF92FF921F93CF93DF9300D049
:10021000CDB7DEB77C01162F27FF02C060EC01C00E
:1002200060EE26FF606147FF686046FF646017FF6D
:10023000626016FF6160C70129834A830E94E8005B
:100240002981622FC7010E94E8004A81642FC701FB
:100250000E94E800612FC7010F900F90DF91CF91AE
:100260001F91FF90EF900C94E8007F928F929F92E5
:10027000AF92BF92CF92DF92EF92FF920F931F93B4
:10028000CF93DF93EC01162F942E822E60E00E9414
:10029000E80060E0CE010E94E80060E0CE010E942C
:1002A000E80060E0CE010E94E80083E0189F700142
:1002B000112467018FEFC81AD80A570182E0A80EEF
:1002C000B11C712C8A81781600F571120FC0EB8178
:1002D000FC81EE0DFF1D9082EB81FC81EC0DFD1D7C
:1002E0008082EB81FC81EA0DFB1D0083EB81FC81A8
:1002F00083E0789EE00DF11D11242281418160810F
:10030000CE010E9402017394DDCF60E0CE010E9415
:10031000E80060E0CE010E94E80060E0CE010E94AB
:10032000E80060E0CE01DF91CF911F910F91FF9027
:10033000EF90DF90CF90BF90AF909F908F907F9085
:100340000C94E8000F931F93CF93DF93EC01862F5B
:10035000688349832A8361E00E94861C61E0898169
:100360000E94861C8A8161E070E023E0829FC001C8
:1003700011240E9481219C838B8310E08A811817AD
:1003800048F400E020E040E0612FCE010E943501FA
:100390001F5FF4CFDF91CF911F910F910895FC0162
:1003A00082810895CF93DF93EC01862F6E834F8374
:1003B000288791E09D8760E00E94861C61E08E8125
:1003C0000E94BF1C19861A861B861C86DF91CF915E
:1003D0000895DF92EF92FF920F931F93CF93DF93D5
:1003E000EC0161E08E810E94BF1C6AEF70E080E04A
:1003F00090E00E94731B0E94441B09851A852B857F
:100400003C85601771078207930720F419861A86C6
:100410001B861C862D85211111C009851A852B8507
:100420003C85DC01CB01801B910BA20BB30B803D03
:100430009740A105B10510F481E071C01D860E94AE
:10044000441B69877A878B879C871C821B821A8250
:100450001982188261E08E810E94861C60E08E8184
:100460000E94BF1C64E170E080E090E00E94731B7A
:10047000F89461E08E810E94BF1C88E290E00E94A7
:100480009B1B60E08E810E94861CF12CD12C81E0A8
:10049000E12C082F10E08E810E94F51C8017910737
:1004A00041F4E39481E090E00E949B1B8FEFE812FF
:1004B000F2CF8E810E94F51C9FEFE916C9F023E070
:1004C0002F1590F4F0FC10C09D2D9695969596955D
:1004D000FE01E90FF11D9081990F908328852E155B
:1004E00010F491609083D394F39495E5F912D0CFF2
:1004F000789427E22D1590F42C8130E04881898191
:1005000090E0840F911D4A81840F911D4B81840FCF
:10051000911D99272817390709F48ECF80E0DF91C4
:10052000CF911F910F91FF90EF90DF900895CF92A0
:10053000DF92EF92FF920F931F93CF93DF93EC0123
:10054000162F0E94E901882309F450C08F818B3057
:1005500031F008F44BC08551823078F047C06A8191
:1005600070E080E090E00E942120112309F449C04E
:1005700020E030E040E151E42AC00A81602F6F772B
:1005800070E080E090E00E94232020E030E040E82E
:1005900053E40E94AF206B017C016B8170E080E02E
:1005A00090E00E9423209B01AC01C701B6010E948C
:1005B000241F20E030E040E251E40E94881F07FD44
:1005C0009058112309F120E030E040E151E40E940D
:1005D000AF2020E030E040EA50E40E94881F20E095
:1005E00030E040E052E40E94241F0EC06CE571E050
:1005F00088E696E00E943D1E20E030E040EC5FE798
:1006000005C09B01AC0102C09B01AC01B901CA014C
:10061000DF91CF911F910F91FF90EF90DF90CF90DE
:100620000895CF92DF92EF92FF92CF93DF93EC0188
:100630000E94E901882379F18F818B3029F158F1EB
:100640008551823040F5688170E080E090E00E9442
:10065000212020E030E040E853E40E94AF206B010D
:100660007C01698170E080E090E00E9423209B0182
:10067000AC01C701B6010E94241F20E030E040E237
:1006800051E40E94881F11C0688170E080E090E012
:100690000E9421200AC06CE571E088E696E00E9485
:1006A0003D1E60E070E080EC9FE7DF91CF91FF900E
:1006B000EF90DF90CF90089587E995E00C94F817BC
:1006C000CF93DF93EC0168E670E087E995E00E9444
:1006D000311860E087E995E00E94B91787E995E055
:1006E0000E94461847E050E068E670E087E995E030
:1006F0000E94241887E995E00E943A17282F269532
:10070000269526952E70922F990F990F920F8F7024
:10071000980F988387E995E00E943A17982F929551
:100720009F708F702AE0929F800D1124898387E942
:1007300095E00E943A17282F269526952695267033
:10074000922F990F990F920F8F70980F9A8387E9C4
:1007500095E00E943A17982F92959F708F702AE02B
:10076000929F800D11248B8387E995E00E943A17B0
:10077000982F92959F708F702AE0929F800D112480
:100780008C8387E995E00E943A17982F92959F7085
:100790008F702AE0929F800D11248D8387E995E068
:1007A0000E943A17982F92959F708F702AE0929F1F
:1007B000800D112490E09F838E83DF91CF91089567
:1007C000CF93DF9382E00E94F51CEC0183E00E944E
:1007D000F51C8C239D23019719F481E08093B001CF
:1007E000DF91CF91089584E0809368008BB381718D
:1007F0008BBB8CE080936D00089548EE53E060E081
:1008000070E08DE595E00E94B8122FEF3FEFA9014F
:1008100060EE73E08DE595E00E94CE127894089525
:100820008DE595E00C94BF121F920F920FB60F92B8
:1008300011241F932F933F934F935F936F937F9355
:100840008F939F93AF93BF93CF93DF93EF93FF93D8
:100850001091B0011130E9F482E00E94F51CEC0126
:1008600083E00E94F51C8C179D071CF41093AE01C9
:100870000CC082E00E94F51CEC0183E00E94F51C94
:10088000C817D90734F41092AE011093AF0110923B
:10089000B001FF91EF91DF91CF91BF91AF919F9107
:1008A0008F917F916F915F914F913F912F911F9108
:1008B0000F900FBE0F901F9018958EEA91E00C9448
:1008C000F303CF93DF93EC01862FE62FF0E0F9835B
:1008D000E88350E05B834A832C831E821D8261E0A3
:1008E0000E94861C61E08A81DF91CF910C94861C66
:1008F0001F93CF93DF93EC0160E08A810E94BF1CBD
:100900008AE090E00E949B1B14E061E08A810E94D3
:10091000BF1C60E08A810E94BF1C1150B1F7DF91BB
:10092000CF911F910895FF920F931F93CF93DF9361
:10093000EC018B0190E1F92E612F661F6627661F7F
:100940008A810E94BF1C88810E94F51C61E0892B6E
:1009500009F060E088810E94BF1C000F111FFA940B
:1009600059F7DF91CF911F910F91FF900895EF926A
:10097000FF920F931F93CF93DF93EC017B017E8354
:100980006D8360E070E00E94930400E010E08C81D1
:1009900081110CC0C701002E02C0969587950A945C
:1009A000E2F780FF03C06FEF70E002C060E070E02C
:1009B000CE010E9493040F5F1F4F0831110539F7D4
:1009C00060E070E0CE010E94930460E070E0CE0130
:1009D0000E949304CE01DF91CF911F910F91FF9060
:1009E000EF900C947804FC016483658176810C940B
:1009F000B704693108F068E12FEF3FEF02C0220F22
:100A0000331F6A95E2F720953095FC0136832583E4
:100A1000B9010C94B704662321F0693118F068E13C
:100A200001C061E05FEF560FFC012581368161E076
:100A300070E002C0660F771F5A95E2F7442319F061
:100A4000622B732B04C06095709562237323FC01A5
:100A5000768365830C94B704662321F0693118F01E
:100A600068E101C061E02FEF260F61E070E002C095
:100A7000660F771F2A95E2F7FC01258136816227F0
:100A80007327768365830C94B704FC018581968176
:100A90000895FC0181E020813181232B09F480E05D
:100AA00008958091020290910302019690930302AF
:100AB0008093020208950E94441B60931C0270936D
:100AC0001D0280931E0290931F0282E00E94F51C7B
:100AD00090930B0280930A02892BA9F060E088E0D2
:100AE0000E94BF1C80911C0290911D02A0911E02C9
:100AF000B0911F028093180290931902A0931A02DA
:100B0000B0931B0214C080911C0290911D02A09111
:100B10001E02B0911F028093140290931502A093BD
:100B20001602B093170261E088E00E94BF1C40915A
:100B300018025091190260911A0270911B02809163
:100B4000140290911502A0911602B0911702841719
:100B50009507A607B70740F5481B590B6A0B7B0B97
:100B6000409310025093110260931202709313028B
:100B70008091240290912502A0912602B091270233
:100B8000840F951FA61FB71F809324029093250200
:100B9000A0932602B0932702109218021092190215
:100BA00010921A0210921B02089564E070E087E927
:100BB00095E00E94151864E87EE087E995E00E94C0
:100BC00049186DEB7EE087E995E00E944E1841E000
:100BD00050E06BE575E080E00C94701AAF92BF9224
:100BE000CF92DF92EF92FF920F931F93CF93DF93F9
:100BF000CDB7DEB728970FB6F894DEBF0FBECDBFD6
:100C000080917F0290918002049709F052C281E0A6
:100C100090E090937E0280937D028091810290917A
:100C200082028631910549F46091830270918402B9
:100C30008CEF92E00E94830F3CC28531910521F533
:100C40008CEF92E00E940F11882309F432C268E30E
:100C500072E08CEF92E00E943C1081E0809365028C
:100C600080E090E08431910554F4FC01EB59FD4F94
:100C7000DC01A85CBD4F2C9121830196F3CF9093AA
:100C80007C0280937B0215C28130910539F48091FA
:100C900083020E94F51C80937A020BC28230910578
:100CA00039F460918502809183020E94BF1C01C2C9
:100CB00083309105B1F4809183020E94E11B9093EF
:100CC0003702809336029C0197FF02C021503F4FAC
:100CD0003093660260E071E00E9412218093670207
:100CE000E8C18430910549F46091850270918602D3
:100CF000809183020E94FE1BDCC18530910539F48E
:100D000060918502809183020E94861CD2C1873047
:100D1000910509F04AC080912C0290912D02892BF7
:100D200009F4C7C180918302909184028093B3013A
:100D30009093B40161E00E94861C60E08091B30151
:100D40000E94BF1C82E090E00E949B1B61E08091AA
:100D5000B3010E94BF1C85E090E00E949B1B60E0F5
:100D60008091B3010E94BF1C60E08091B3010E949A
:100D7000861C20E533EC40E050E061E08091B30157
:100D80000E941E1D2AE330E040E050E00E9448210E
:100D9000CA01B90120E031E040E050E00E94482162
:100DA00020934E0260934F0220C18830910541F498
:100DB00081E08093660282E08093670286E022C031
:100DC0008431910511F580913502811107C08BEFB7
:100DD00092E00E94601181E08093350223E332E0CB
:100DE00042E352E061E372E08BEF92E00E94701107
:100DF0008091310280936602809132028093670273
:100E0000809133028093680254C18E31910571F54F
:100E100080913402811107C083EF92E00E945C034D
:100E200081E08093340283EF92E00E94600380911E
:100E3000F502809366028091F402809367028091AC
:100E4000F302809368028091F80280936902809196
:100E5000F70280936A029091F90290936B0280935B
:100E60006C028091F60280936D0223C18832910555
:100E700009F05EC080912C0290912D02892B09F41B
:100E800018C18091850290918602009719F426E09E
:100E90004BE00BC08130910519F426E046E105C016
:100EA0000297029740F426E045E16091830285EEC7
:100EB00092E00E94D20160E085EE92E00E949702EB
:100EC0006D837E838F83988785EE92E00E94110365
:100ED00069837A838B839C831092B2011092B10153
:100EE000FE01359680E090E001962191DC01A05B47
:100EF000BD4F2C9384309105BCF384E090E0909337
:100F0000B2018093B1010196DC01A05BBD4FE1E02D
:100F1000F0E0EC0FFD1FE80FF91F359720812C93AF
:100F20008830910584F39093B2018093B1015DC044
:100F300082339105D9F4409183025091840221E0DB
:100F40008091850290918602892B09F420E061E06E
:100F5000640FFA01329737E03E9FC0013F9F900D2A
:100F6000112485549D4F0E946104A3C0C39709F0CA
:100F700041C020918302309184022250310947E020
:100F8000429FC001439F900D112485549D4F0E94A4
:100F9000490581114DC12EC08A30910509F0F2C575
:100FA00080912C0290912D02019709F082C08091CE
:100FB0000C02809365028091200290912102A09101
:100FC0002202B091230280936602492F5A2F6B2F81
:100FD000772740932002509321026093220270935E
:100FE000230240936702A093680210922D02109290
:100FF0002C025FC08091810290918202C49709F413
:1010000030C18091810290918202C59791F4209124
:101010008302309184022250310947E0429FC0018F
:10102000439F900D112485549D4F0E9449058111C5
:101030003DC18091810290918202C69709F451C10D
:101040008091810290918202C79791F4209183024E
:10105000309184022250310917E0129FC001139F82
:10106000900D112485549D4F0E944905811185C121
:101070008091810290918202C89709F457C18091B2
:101080008102909182028634910509F090C16091AD
:1010900083027091840241E0460F9B012250310986
:1010A000C901880F991F820F931F87559D4F0E947A
:1010B000E91280910E0290910F02892BD9F10E94C2
:1010C000441B009128021091290220912A0230919C
:1010D0002B02601B710B820B930B613375478105EB
:1010E000910540F181E090E090930D0280930C0215
:1010F0008091240290912502A0912602B0912702AE
:101100008093200290932102A0932202B0932302A5
:1011100010922402109225021092260210922702A9
:101120000E94441B609328027093290280932A0234
:1011300090932B028091040290910502892B39F142
:101140008091AF01813019F52091AE0180910802A4
:1011500090910902213049F401968931910554F0AA
:10116000109209021092080209C0019797FF02C06D
:1011700088E190E0909309028093080281E08093D7
:10118000060280910802809307021092AF018091BD
:10119000FE019091FF01892B09F4A5C50E94441B13
:1011A0000091FA011091FB012091FC013091FD01A9
:1011B000601B710B820B930B613D7740810591059C
:1011C00008F491C520910202309103024EE1429F42
:1011D000C001439F900D112469E470E00E94122128
:1011E000E62F472F609300027093010281E0809305
:1011F000F701862F972F60E071E00E941221809303
:10120000F8012E2F342F37FF02C021503F4F30936B
:10121000F90110920302109202020E94441B609393
:10122000FA017093FB018093FC019093FD015BC573
:1012300061E08091850290918602892B09F460E03B
:1012400020918302309184022250310947E0429F6D
:10125000C001439F900D112485549D4F0E94F304BB
:1012600028CF20918302309184022250310917E067
:10127000129FC001139F900D112485549D4F0E9411
:101280004905882309F4BDCE209183023091840260
:1012900022503109129FC001139F900D11246091BB
:1012A000850285549D4F0E94F90403CF41E080914F
:1012B000870290918802892B09F440E020918302F3
:1012C000309184022250310957E0529FC001539F50
:1012D000900D11246091850285549D4F0E940B054D
:1012E000E8CE20918302309184022250310917E028
:1012F000129FC001139F900D112485549D4F0E9491
:101300004905882309F49CCE209183023091840200
:1013100022503109129FC001139F900D112460913A
:10132000850285549D4F0E942C05C3CE20918302D7
:10133000309184022250310917E0129FC001139F9F
:10134000900D112485549D4F0E944905882309F46E
:1013500096CE209183023091840222503109129F4F
:10136000C001139F900D112485549D4F0E94450587
:1013700080936602909367029CCE80E090E090910B
:1013800087026091850270918602682779272091F3
:1013900083023091840222503109129FC001139FB1
:1013A000900D112485549D4F0E94B70482CE87343E
:1013B000910519F520918302309184022250310960
:1013C000C901880F991F820F931F87559D4F0E9457
:1013D0005114882391F0209183023091840222508D
:1013E0003109C901880F991F820F931F60918502EF
:1013F00087559D4F0E9400135CCE80918102909191
:1014000082028834910559F520918302309184023B
:1014100022503109C901880F991F820F931F8755E8
:101420009D4F0E9451148823D1F080E090E090916C
:101430008702609185027091860268277927209142
:1014400083023091840222503109C901880F991F0B
:10145000820F931FE12C00E024E040E031C0809136
:101460008102909182028934910579F5209183025D
:101470003091840222503109C901880F991F820FCF
:10148000931F87559D4F0E9451148823F1F080E0EF
:1014900090E09091870260918502709186026827A2
:1014A0007927209183023091840222503109C901A9
:1014B000880F991F820F931FE12C00E024E041E088
:1014C00087559D4F0E94D413F4CD80918102909155
:1014D00082028A34910519F52091830230918402A9
:1014E00022503109C901880F991F820F931F875518
:1014F0009D4F0E945114882391F0209183023091D6
:10150000840222503109C901880F991F820F931F4D
:101510006091870287559D4F0E944A141AC080919E
:101520008102909182028B34910519F520918302FA
:101530003091840222503109C901880F991F820F0E
:10154000931F87559D4F0E945114882391F08091DD
:1015500087028983209183023091840222503109CD
:10156000C901880F991F820F931F2091850241E0C6
:101570000FC180918102909182028C34910509F013
:1015800075C0209183023091840222503109C90133
:10159000880F991F820F931F87559D4F0E945114EA
:1015A000882309F463C080918502909186020AE045
:1015B00010E0B8010E941221209183023091840230
:1015C00022503109C901880F991F820F931F875537
:1015D0009D4F0E944A1489838091850290918602D2
:1015E000B8010E941221209183023091840222507E
:1015F0003109A901440F551F420F531F682FCA011B
:1016000087559D4F0E944A1480688A838091870283
:1016100090918802B8010E9412212091830230919A
:10162000840222503109C901880F991F820F931F2C
:1016300087559D4F0E944A148B8380918702909119
:101640008802B8010E941221209183023091840205
:1016500022503109A901440F551F420F531F682F13
:10166000CA0187559D4F0E944A1484C0809181020F
:10167000909182028D34910589F4209183023091FA
:10168000840222503109C901880F991F820F931FCC
:1016900087559D4F0E94511481111AC0809181027B
:1016A000909182028E34910509F043C0209183020B
:1016B0003091840222503109C901880F991F820F8D
:1016C000931F87559D4F0E94511481114FC031C007
:1016D00010918502A0908702B0908802AA0CBB1CD2
:1016E000AA0CBB1CC12CD12CCA14DB040CF0E1CC1D
:1016F000812F0E94E11BBC01209183023091840262
:1017000022503109C901880F991F820F931FE12CC4
:1017100000E024E040E087559D4F0E94D4136AEF1B
:1017200070E080E090E00E94731B2FEFC21AD20A93
:10173000DBCF80918102909182028F34910581F5F7
:10174000209183023091840222503109C901880F0F
:10175000991F820F931F87559D4F0E945114882314
:10176000F9F019821A821B821C8205C08FEF8983CF
:101770008A838B838C832091830230918402225050
:101780003109C901880F991F820F931F20E044E09F
:10179000BE016F5F7F4F87559D4F0E94871389CC95
:1017A00080918102909182028A35910569F480913D
:1017B000830280932E028091850280932F02809174
:1017C00087028093300275CC8B359105B1F460911E
:1017D00083027091840241E0460F9B01225031093F
:1017E00055E0529FC001539F900D11242091850216
:1017F00085579D4F0E94A2015CCC8C35910509F064
:1018000044C0609183027091840241E0460F9B01C5
:101810002250310955E0529FC001539F900D112471
:101820002091850285579D4F0E94A2011091870249
:1018300012FBDD24D0F8D19411FBCC24C0F8C19464
:1018400011701195E12CF12CE5E0BE2E80918502FE
:1018500090918602E816F9060CF02BCC6091830279
:101860007091840262507109B69EC001B79E900DBE
:101870001124012F2C2D4D2D6E2D85579D4F0E942B
:1018800035013FEFE31AF30AE1CF8D35910509F0F9
:1018900074C02091850230918602809183029091DC
:1018A0008402232BB1F49C012250310945E0429F70
:1018B000C001439F900D11240091300220912F020E
:1018C00040912E026091870285579D4F0E943501FD
:1018D000F0CB9C012250310945E0429FC001439F5B
:1018E000900D112485579D4F0E94CF01E12CF12CC2
:1018F000C82ED12C15E0EC14FD040CF0DACB2091AD
:101900008502309186022130310541F480918702B1
:1019100090918802E816F906B1F42BC02230310507
:1019200041F480918702909188028E159F055CF4A6
:1019300020C023303105E9F480918702909188021C
:10194000E816F906B4F02091830230918402225007
:101950003109129FC001139F900D11240091300294
:1019600020912F0240912E026E2D85579D4F0E948F
:1019700035014FEFE41AF40ABECF8E35910509F018
:1019800052C080918702909188021816190634F08F
:1019900081E090E0909388028093870220918302F7
:1019A000309184022250310945E0429FC001439F9B
:1019B000900D112485579D4F0E94CF01E090850224
:1019C000F0908602C82ED12C15E0EC14FD040CF02A
:1019D00070CB80918502909186029701281B390B6C
:1019E000C90160918702709188020E941221892B9F
:1019F000B1F4209183023091840222503109129F68
:101A0000C001139F900D11240091300220912F02EC
:101A100040912E026E2D85579D4F0E9435013FEF5C
:101A2000E31AF30AD2CF8F35910509F084C02091D3
:101A30008302309184022250310945E0429FC00167
:101A4000439F900D112485579D4F0E94CF01182F61
:101A50008091870290918802C12ED12CE12CF12C2B
:101A6000892B99F515E0EC14FD040CF022CB2091A4
:101A70008502309186028091830290918402E21661
:101A8000F3067CF49C0122503109129FC001139F80
:101A9000900D11240091300220912F0240912E02CE
:101AA0000BC09C0122503109129FC001139F900D61
:101AB000112400E020E040E06E2D85579D4F0E94EC
:101AC00035014FEFE41AF40ACECF75E0B72E960138
:101AD0002E193F0909F4EDCA809185029091860282
:101AE000A601481B590BCA01409183025091840200
:101AF000612F6E19425051092817390764F0B49EBE
:101B0000C001B59E900D11240091300220912F024A
:101B100040912E0208C0B49EC001B59E900D1124C4
:101B200000E020E040E085579D4F0E9435015FEFC7
:101B3000E51AF50ACCCF8E309105C1F441E050E0B2
:101B40006BE575E080E00E94701A81E090E0909370
:101B50000F0280930E020E94441B60932802709330
:101B6000290280932A0290932B0253C08F30910553
:101B700009F012CA80E00E94901A10920F0210928F
:101B80000E0247C08031910559F48EEA91E00E941F
:101B9000FD0381E090E0909305028093040239C038
:101BA0008131910549F48EEA91E00E94100410926F
:101BB0000502109204027DCA8231910501F560E0B0
:101BC00082E00E94861C43E050E061E575E080E021
:101BD0000E94701A10920302109202020E94441B8B
:101BE0006093FA017093FB018093FC019093FD01D7
:101BF00081E090E09093FF018093FE010AC08D3058
:101C0000910561F41092FF011092FE0180E00E94A4
:101C1000901A10928202109281024BCA843691056A
:101C2000D1F580912C0290912D02019709F041CAC3
:101C300080918302909184028130910549F48091D2
:101C400085020E94771480ED97E00E941D15CDC992
:101C50008230910579F480918502909186028134D9
:101C600091051CF48093B60102C01092B601109247
:101C7000B501BBC9039709F0B8C96091B6016623E5
:101C800009F4B3C98091B5016813AFC987EB91E03E
:101C90000E941416AAC98536910509F00ACA8091D6
:101CA0002C0290912D02019709F003CA8091B50191
:101CB0009091B601891708F098C9E3E8F2E08F5FC8
:101CC00020813296A82FB0E0AA54BE4F2C9322E078
:101CD000E938F20719F48093B50187C98913EFCF6A
:101CE0009093B50182C928960FB6F894DEBF0FBE57
:101CF000CDBFDF91CF911F910F91FF90EF90DF90BB
:101D0000CF90BF90AF9008950F931F93CF93DF9321
:101D100001E010E087E995E00E943217892B41F13C
:101D200087E995E00E943217049761F410927E02D1
:101D300010927D021092800210927F0210932D0269
:101D400000932C02C0917F02D0918002CE010196B7
:101D50009093800280937F0287E995E00E943A1772
:101D6000FE01EE0FFF1FEF57FD4F91838083D2CF0F
:101D7000DF91CF911F910F910895809181029091F1
:101D80008202019731F460917A0287E995E00E941E
:101D9000B91780918102909182028330910511F0F0
:101DA000C89741F443E050E065E672E087E995E0CA
:101DB0000E948C178091810290918202079761F4B2
:101DC00043E050E06DE472E087E995E00E948C17F3
:101DD000109282021092810280918102909182027F
:101DE0008830910511F0449741F444E050E065E6F5
:101DF00072E087E995E00E948C17809181029091B2
:101E000082024E9741F449E050E065E672E087E9CE
:101E100095E00E948C1780918102909182028897B0
:101E200061F449E050E060E572E087E995E00E94E6
:101E30008C171092820210928102809181029091FF
:101E40008202459751F445E150E065E672E087E98A
:101E500095E00E948C17109265028091810290910A
:101E600082020A9781F444E050E065E672E087E977
:101E700095E00E948C1710920D0210920C021092A5
:101E800082021092810280918102909182020B97CE
:101E900071F442E050E066E072E087E995E00E946C
:101EA0008C17109206021092820210928102809189
:101EB0008102909182020C9771F443E050E067EF49
:101EC00071E087E995E00E948C171092F70110925B
:101ED0008202109281020895F89482E08093B0000B
:101EE0008093B10094E69093B3001092B200809377
:101EF000700078948093010310925C058091000338
:101F000060E00C94861C609300030E946C0F64E1F7
:101F100070E080E090E00E94731B82E080930103F8
:101F200010925C0508951F920F920FB60F92112424
:101F30002F933F934F935F936F937F938F939F93D1
:101F4000AF93BF93EF93FF93809100030E94F51C22
:101F500020910203309103032F5F3F4F309303031F
:101F60002093020390915C05909101039330B9F0A6
:101F700018F4923039F056C0943051F1953009F48C
:101F80004BC050C081114EC0809102039091030359
:101F90008436910508F442C010925C051BC0813064
:101FA00009F040C0E0915C058E0F80935C05F0E085
:101FB0008091020390910303EE0FFF1FEC5FFC4F33
:101FC00091838083109203031092020384E021C066
:101FD000811117C0E0915C0581E08E0F80935C0554
:101FE000F0E08091020390910303EE0FFF1FEC5F7E
:101FF000FC4F91838083109203031092020383E0CD
:1020000008C080910203909103038536910550F03A
:1020100085E08093010306C0811104C01092030380
:1020200010920203FF91EF91BF91AF919F918F9119
:102030007F916F915F914F913F912F910F900FBEC4
:102040000F901F90189584E093E0FB0191838083AB
:1020500080915C0590E093838283809101038530B9
:1020600041F482E08093010310925C0581E090E0EE
:10207000089580E090E008952F923F924F925F92F2
:102080006F927F928F929F92AF92BF92CF92DF9288
:10209000EF92FF920F931F93CF93DF931C01FB01ED
:1020A000DC0112962D913C9113973901B4E06B1A23
:1020B000710877FE04C03901CBE06C0E711CA4E0FE
:1020C00075946794AA95E1F7D1010D911C9140E0B8
:1020D00050E080E090E07801B6E0EB0EF11CD70113
:1020E000A40FB51F6D917C91860F971F4C5F5F4FBA
:1020F00048325105A1F76AE070E00E9412217B018D
:102100004B01880C991CD801189640E050E060E023
:1021100070E080E090E08901095011092D913C9117
:1021200011978216930638F42D913C911197820FE6
:10213000931F6F5F7F4F6A30710559F014969A01B3
:102140002E5F3F4F4A5F5F4F4017510714F4A901BC
:10215000E5CF0E941221562EDF01169648E050E08E
:1021600020E030E0CC24C394D12C2615370544F56B
:102170001C928A0187E090E0E10168817981600F1B
:10218000711FEB01A880B9804C90B601082E01C0E8
:10219000660F0A94EAF78A149B0410F4642902C0BB
:1021A000609564216C9301970C5F1F4F8F3FDFEFA9
:1021B0009D0711F72F5F3F4F1196405E5F4FD5CFC0
:1021C00085E0860D8083E101A881B98112968D9109
:1021D0009C9113978183A881B98114968D919C91CC
:1021E00015978283E3825482658282E080930103A3
:1021F00010925C0580818F5FDF91CF911F910F91CD
:10220000FF90EF90DF90CF90BF90AF909F908F9016
:102210007F906F905F904F903F902F900895CF9355
:10222000DF93EC01BC010E942310892BC1F08A814D
:102230009B818034910534F004979C0127703327EB
:10224000232B31F082E08093010310925C0507C0DC
:10225000B4E095958795BA95E1F78A5F01C080E073
:10226000DF91CF9108951F93CF93DF931F92CDB746
:10227000DEB7162F87E995E049830E94F8176CE4D2
:1022800070E087E995E00E943118612F87E995E0B9
:102290000E94B9174981642F87E995E00E94B91718
:1022A00087E995E00F90DF91CF911F910C9446182C
:1022B000462F67E00C943311462F68E00C943311DD
:1022C000CF93DF93EC0160E00E94581160E0CE01F3
:1022D0000E945C1161E0CE01DF91CF910C94581106
:1022E0004F925F926F927F928F929F92AF92BF9226
:1022F000CF92DF92EF92FF920F931F93CF93DF93D2
:1023000000D01F92CDB7DEB75B016A01790180E48E
:102310008B838A8389830E94441B2B013C0187E9BC
:1023200095E00E943217181619066CF40E94441B9F
:102330006419750986099709653F71408105910502
:1023400074F380E072C087E995E00E943A1743E099
:1023500050E06CE470E087E995E00E9424180E9448
:10236000441B2B013C018E010F5F1F4F480187E981
:1023700095E00E943217892B69F1C80188199909E3
:102380000397D4F40E94441B2B013C01F801808187
:10239000803490F087E995E00E943A17F801808335
:1023A0000E94441B641975098609970963337105F6
:1023B000810591055CF3C5CF0E94441B0F5F1F4F41
:1023C0006419750986099709653F71408105910572
:1023D00074F2B7CF898124E0829FC0011124282F95
:1023E00087FF02C023E0280F25952595F50120835E
:1023F0008A81F4E08F9FC0011124282F87FF02C03B
:1024000023E0280F25952595F60120838B81F4E0A4
:102410008F9FC0011124282F87FF02C023E0280FBF
:1024200025952595F701208381E00F900F900F905F
:10243000DF91CF911F910F91FF90EF90DF90CF90A0
:10244000BF90AF909F908F907F906F905F904F90D4
:1024500008951F920F920FB60F9211242F933F935E
:102460004F935F936F937F938F939F93AF93BF939C
:10247000EF93FF93E0916105F09162050995FF915B
:10248000EF91BF91AF919F918F917F916F915F91EC
:102490004F913F912F910F900FBE0F901F90189565
:1024A000FC01A3E0440F551F661F771FAA95D1F7C3
:1024B0004115510581E06807710514F481E00EC0F3
:1024C00033E075956795579547953A95D1F741153E
:1024D000510581E0680771051CF482E0828331C0F8
:1024E00023E075956795579547952A95D1F741153E
:1024F000510581E06807710514F483E0EFCF92E0A5
:1025000075956795579547959A95D1F7411551055A
:1025100081E06807710514F484E0E0CF82E07595EE
:102520006795579547958A95D1F785E08283411540
:10253000510581E06807710524F04FEF5FEF60E01F
:1025400070E08FB78383F894518340835093870062
:102550004093860083818FBF80918100887F809324
:102560008100809181009281892B80938100089560
:102570001092800020E1209381000C945012EFE62D
:10258000F0E080818E7F80830895E1E8F0E0208193
:10259000DC0112968C91282B208308950F931F93B2
:1025A000CF93DF93EC018B01BA01A9011416150634
:1025B0001606170614F40E9450121D830C8381E046
:1025C00080936F00CE01DF91CF911F910F910C94FA
:1025D000C512CF93DF93EC01862F6883498360E0B7
:1025E0000E94861C60E089810E94861C60E08881D0
:1025F0000E94BF1C60E08981DF91CF910C94BF1CC9
:10260000683010F4685F01C06FE0FC0162830895D8
:1026100061E0FC0181810E94861C82E390E00C94C1
:102620009B1BCF93DF93EC0161E089810E94861CA4
:1026300082E390E00E949B1B60E088810E94861CE0
:1026400082E390E00E949B1B60E089810E94861CCF
:1026500082E390E0DF91CF910C949B1B0F931F932B
:10266000CF93DF93EC01062F18E061E088810E9490
:10267000861C82E390E00E949B1B00FF02C060E08A
:1026800001C061E089810E94861C82E390E00E9483
:102690009B1B60E088810E94861C82E390E00E9480
:1026A0009B1B0695115009F761E088810E94861CEA
:1026B00060E089810E94861C82E390E00E949B1B5F
:1026C00060E088810E94861C82E390E00E949B1B50
:1026D00089810E94F51C182F811104C061E0898155
:1026E0000E94861C82E390E00E949B1B61E088812F
:1026F0000E94861C82E390E00E949B1B81E01111E6
:1027000001C080E0DF91CF911F910F910895AF92AA
:10271000BF92DF92EF92FF920F931F93CF93DF93BD
:1027200000D0CDB7DEB75C01F62EE42E29837A8384
:102730000E94081360E4C5010E942E13C5010E9487
:102740001113C5010E9408132981622F6370605420
:10275000C5010E942E13DF2C0F2D7A81172F802F99
:102760008D198E1538F4F80161918F01C5010E9411
:102770002E13F5CFC5010E941113C5010E94081345
:10278000F50162816058C5010E942E13C5010F90AA
:102790000F90DF91CF911F910F91FF90EF90DF90FD
:1027A000BF90AF900C9411134F925F926F927F92F3
:1027B0008F929F92AF92BF92CF92DF92EF920F9340
:1027C0001F93CF93DF9300D000D0CDB7DEB73C018D
:1027D0005B01322F202F8EE6882E81E0982ECE01CD
:1027E00001966C01FC0101E01FE3D4015E904E9064
:1027F0004D01C501B2010E9412216115710561F4FC
:10280000411106C0002321F08E2F8C19833011F462
:10281000108313C0108211C0A62FAF70B0E0A25970
:10282000BE4F8C918083649DC001659D900D749D09
:10283000900D1124A81AB90A00E0EE2039F08E2F6D
:102840008C19813019F48081806880833196B6E6D6
:102850008B16B1E09B0649F664E070E0631B7109DA
:102860006C0D7D1D432FC3010E9487130F900F90A5
:102870000F900F90DF91CF911F910F91EF90DF900C
:10288000CF90BF90AF909F908F907F906F905F9010
:102890004F9008956F70E62FF0E0E259FE4F80816F
:1028A0000895FC0181E09081911101C080E00895BC
:1028B0008627082E8295807F8025092E982F829565
:1028C0008F700826869598278927880F880F880F8C
:1028D00080250895EEE7F1E090E02191821729F03C
:1028E0009F5F9031D1F780E00895892F08958093FC
:1028F000060108951F93CF93DF9390918E0599233E
:1029000029F080918B058F5F80938B0520918D0539
:1029100080918C05921759F0803510F42BE001C09E
:102920002DE1820F80938C0590938D0503C08C5E02
:1029300080938C0520918C05203A08F47AC0809110
:102940008605909187059695879590938705809346
:10295000860530918B05353028F098609093870577
:1029600080938605205A20938C0510928B058091C8
:102970008A05882309F44DC0809185058F5F809377
:1029800085058C3008F455C0C0918605D091870527
:102990008C2F8F730E946A14182FCE0126E0969513
:1029A00087952A95E1F70E946A1490E1199F90019A
:1029B0001124822B9091650591110EC080936605BC
:1029C0009CEF980F9B3140F010928A05809164052E
:1029D0008F5F809364052DC0E091650591E09E0FA7
:1029E00090936505F0E0E959FA4F80839091650571
:1029F00080916605981750F010928A0580916305C2
:102A00008F5F8093630581E080938905109285052F
:102A100010C0809186059091870588339B4049F4CA
:102A200081E080938A0510928505109265051092C9
:102A30008905DF91CF911F9108954F925F926F9218
:102A40007F92BF92CF92DF92EF92FF920F931F93EC
:102A5000CF93DF93CDB7DEB72E970FB6F894DEBFD6
:102A60000FBECDBFBC018EE0EEE4F1E0DE011196B9
:102A700001900D928A95E1F76115710509F49AC0EC
:102A800080E090E00E9421209B01AC0160E070E0BA
:102A900080E89FE30E94881F20E030E040E05EE392
:102AA0000E94AF206B017C018E010D5F1F4FBB2484
:102AB000B394F801619171918F0180E090E00E94E0
:102AC00021209B01AC0160E074E284E79BE40E945A
:102AD000881F9B01AC0160E070E080E89FE30E94EA
:102AE000881F9B01AC01C701B6010E94881F0E948C
:102AF000F01F2B013C01F2E04F1A510861087108E8
:102B00002DEF42162FEF52066104710428F0B394A2
:102B1000E7E0BE12CECF05C0F6E0BF1609F44AC00A
:102B20000CC0623071058105910508F443C0611540
:102B3000710521E082079105E8F5BB20D9F11092DB
:102B4000800028E020938100209181002B29209390
:102B50008100709389006093880080916F0082608B
:102B600080936F0061E0809106010E94861C60E006
:102B7000809107010E94861C61E0809108010E94FB
:102B8000861C60918F05809108012E960FB6F894EF
:102B9000DEBF0FBECDBFDF91CF911F910F91FF9090
:102BA000EF90DF90CF90BF907F906F905F904F90AD
:102BB0000C94BF1C2E960FB6F894DEBF0FBECDBF8F
:102BC000DF91CF911F910F91FF90EF90DF90CF9009
:102BD000BF907F906F905F904F900895CF93109229
:102BE0009505109294051092930560918F05C1E0B0
:102BF0006C27809108010E94BF1CC0939205CF9161
:102C0000089560918F05809108010E94BF1C60E0CB
:102C1000809106010E94BF1C109292050895809138
:102C200092058111FCCF0895CF92DF92EF92FF922F
:102C30000F931F93CF93DF93F82EE92ED62E8BE1BF
:102C4000861708F485C00E940F16C3E0CD0D6C2FC7
:102C50008FEF9FEF0E945814AC2FB0E0F4E0B595D1
:102C6000A795FA95E1F7A258BE4F2C912093110138
:102C7000CF70EC2FF0E0E258FE4F2081209312013C
:102C800001E111E0CF2CCF2DDE2D0E5F1F4F2C2F39
:102C90002C192D15D0F47E0168810E945814A99139
:102CA000B0E0E4E0B595A795EA95E1F7A258BE4FEC
:102CB0002C91D8012C93D701EC91EF70F0E0E25801
:102CC000FE4F2081F8012183E0CF61E06D0D660F9A
:102CD00080959095E62FF0E0EF5EFE4FDC0144E03A
:102CE000B695A7954A95E1F7AF70BB27A258BE4F9E
:102CF0002C912083E1E0E60FF0E0EF5EFE4FDC0177
:102D0000AF70BB27A258BE4F2C912083E2E0E60FA4
:102D1000F0E0EF5EFE4FDC01AB2FBB27A295AF705A
:102D2000A258BE4F2C912083A3E0A60FB0E0AF5E67
:102D3000BE4FE92FFF27EF70FF27E258FE4F80813B
:102D40008C93645F609396050E94EE1581E001C04C
:102D500080E0DF91CF911F910F91FF90EF90DF9076
:102D6000CF9008951F920F920FB60F9211242F93B8
:102D70003F934F935F936F937F938F939F93AF9303
:102D8000BF93EF93FF9380918805882321F0809172
:102D90009205882371F1809192058823C9F0809172
:102DA000930591E0980F90939305811111C0E091E4
:102DB000950580919605E81718F10E9401168091FB
:102DC00090059091910501969093910580939005BF
:102DD00080919305883010F01092930580918805BA
:102DE000882379F18091920581112BC00E947A1479
:102DF00028C0809107010E94F51C80938E05CBCFDF
:102E0000F0E0E75FFE4F60812091940581E0820F42
:102E10008093940581E090E001C0880F2A95EAF73D
:102E20006823809106010E94BF1C80919405863022
:102E300078F210929405809195058F5F80939505A7
:102E4000C7CFFF91EF91BF91AF919F918F917F91EC
:102E50006F915F914F913F912F910F900FBE0F9007
:102E60001F9018958091CB0590E02091CC05821B96
:102E7000910908952091CC058091CB05281750F435
:102E8000E22FF0E0E353FA4F808190E02F5F209330
:102E9000CC0508958FEF9FEF0895E091CC058091C8
:102EA000CB05E81730F4F0E0E353FA4F808190E06F
:102EB00008958FEF9FEF08950895E091A305F09195
:102EC000A4053097E1F03091CC052091CB05321765
:102ED000B0F040E0242F30E02617370754F4DC012F
:102EE000A20FB31F5C91D901A353BA4F5C934F5FFC
:102EF000F1CF1092CC056093CB05CB0109940895D6
:102F0000E091A505F091A605309729F01092A9054A
:102F10001092A80509940895CF92DF92EF92FF9244
:102F20000F931F93CF93DF937C01CB018A012091F4
:102F3000A705222389F0EB016B01C40ED51ECC1529
:102F4000DD0569F06991D701ED91FC910190F08167
:102F5000E02DC7010995F3CF642F0E941019C80115
:102F6000DF91CF911F910F91FF90EF90DF90CF9065
:102F70000895CF93DF931F92CDB7DEB76983209179
:102F8000A7052223D1F02091A805203240F021E0AE
:102F900030E0FC013383228380E090E015C0809113
:102FA000A905E82FF0E0E655FA4F998190838F5FED
:102FB0008093A9058093A80505C061E0CE01019624
:102FC0000E94101981E090E00F90DF91CF91089559
:102FD000FC011382128248EE53E060E070E044830B
:102FE00055836683778382E991E091838083089596
:102FF0001092CC051092CB051092A9051092A8054D
:103000000C945718CF93DF93EC01862F0E9475180C
:1030100080E897E10E942E198DE597E10E94291919
:10302000CE01DF91CF910C94F8170C940218862FE3
:10303000413208F040E26DEC75E00E947918109280
:10304000CC058093CB05089521E00C94171881E0FE
:103050008093A7056093CA051092A9051092A80550
:1030600008950C9427180F93062F21E04091A8058E
:103070006AEA75E08091CA050E94BD181092A90500
:103080001092A8051092A7050F91089561E00C9485
:1030900033187093A4056093A30508957093A60553
:1030A0006093A505089587E995E00C94E8171092C0
:1030B0005A0681E0809358061092570661E082E13B
:1030C0000E94BF1C61E083E10E94BF1CE9EBF0E0BD
:1030D00080818E7F808380818D7F808388E4809350
:1030E000B80085E48093BC000895880F8093BA00EF
:1030F0000895413208F03FC090915A069111FCCFDB
:1031000091E090935A06209358062FEF2093ED05F7
:1031100010923206240F2093310690935906909115
:103120005906880F892B8093590680915706813064
:1031300041F410925706809159068093BB0085ECAC
:1031400001C085EE8093BC0080915A068130E1F386
:1031500080913206841710F44091320623E336E062
:10316000FB01D9018A2F821B841718F48D9181935A
:10317000F9CF842F089580E008950F93413208F02D
:1031800046C090915A069111FCCF92E090935A0656
:10319000009358069FEF9093ED05109232064093EE
:1031A0003106FB0163E376E0DB019A2F961B94174F
:1031B00018F491919D93F9CF109259069091590668
:1031C000880F892B8093590680915706813041F4EE
:1031D00010925706809159068093BB0085EC01C080
:1031E00085EE8093BC00222321F080915A06823024
:1031F000E1F38091ED058F3F61F08091ED05803224
:1032000051F08091ED05803341F483E007C081E007
:1032100005C080E003C082E001C084E00F91089502
:10322000613298F420915A06243089F460930F0695
:10323000FC0181E196E0DC012A2F281B261718F4F7
:1032400021912D93F9CF80E0089581E0089582E0E7
:1032500008959093540680935306089590935606CC
:1032600080935506089585ED8093BC008091BC0045
:1032700084FDFCCF10925A06089585EC8093BC0023
:1032800010925A0608951F920F920FB60F921124B2
:103290002F933F934F935F936F937F938F939F935E
:1032A000AF93BF93EF93FF938091B900887F8036EF
:1032B00009F49CC068F5883209F45BC090F4803151
:1032C00009F454C038F4882309F4F5C0883009F4AF
:1032D0004DC0F5C0883109F44CC0803209F45DC09E
:1032E000EEC0803409F468C048F4803309F455C056
:1032F000883309F0E4C08093ED05A8C0803509F457
:103300004FC0883509F45DC0883409F0D8C0D5C0F5
:10331000883909F4C6C0A8F4883709F467C038F4BE
:10332000883609F463C0803709F460C0C8C08838A3
:1033300009F4B7C0803909F45FC0803809F0BFC014
:103340005BC0803B09F485C038F4803A09F466C05C
:10335000883A09F47EC0B3C0803C09F4A6C0883C1A
:1033600009F4A3C0883B09F489C0A9C0809159061B
:1033700010C09091320680913106981770F5E09157
:10338000320681E08E0F80933206F0E0ED5CF94F5B
:1033900080818093BB0085EC85C08093ED058DC056
:1033A000E091320681E08E0F809332068091BB005F
:1033B000F0E0ED5CF94F8083909132068091310608
:1033C0006DC0E091320681E08E0F809332068091CD
:1033D000BB00F0E0ED5CF94F8083809158068111CD
:1033E0006CC081E08093570684EA60C083E08093DC
:1033F0005A061092EE05CFCF8091EE05803208F08C
:1034000050C0E091EE0581E08E0F8093EE05809133
:10341000BB00F0E0E151FA4F8083BDCF8091EE0513
:10342000803230F4E091EE05F0E0E151FA4F108285
:103430000E9433196091EE0570E0E0915306F0911F
:1034400054068FEE95E009951092EE050E943D1905
:1034500036C084E080935A061092100610920F0630
:10346000E0915506F0915606099580910F0681115D
:1034700005C081E080930F0610921106E0911006BE
:1034800081E08E0F80931006F0E0EF5EF94F8081AF
:103490008093BB009091100680910F06981708F456
:1034A0007ACF85E88093BC000AC085EC8093BC008D
:1034B00010925A0604C01092ED050E943319FF9134
:1034C000EF91BF91AF919F918F917F916F915F919C
:1034D0004F913F912F910F900FBE0F901F90189515
:1034E0008230E8F4E82FF0E0EE0FFF1FE55AF94FC5
:1034F00071836083813041F0809169008C7F842BDF
:1035000080936900E89A089580916900440F551FDF
:10351000440F551F837F842B80936900E99A089597
:10352000823068F4813011F0E89801C0E998E82F02
:10353000F0E0EE0FFF1FE55AF94F11821082089557
:103540001F920F920FB60F9211242F933F934F9318
:103550005F936F937F938F939F93AF93BF93EF93FB
:10356000FF9380915B0690915C06892B29F0E09196
:103570005B06F0915C060995FF91EF91BF91AF91C9
:103580009F918F917F916F915F914F913F912F917B
:103590000F900FBE0F901F9018951F920F920FB6AD
:1035A0000F9211242F933F934F935F936F937F93C9
:1035B0008F939F93AF93BF93EF93FF9380915D069B
:1035C00090915E06892B29F0E0915D06F0915E06F0
:1035D0000995FF91EF91BF91AF919F918F917F914D
:1035E0006F915F914F913F912F910F900FBE0F9070
:1035F0001F9018951F920F920FB60F9211242F93C0
:103600003F938F939F93AF93BF9380916006909168
:103610006106A0916206B091630630915F0623E0D7
:10362000230F2D3720F40196A11DB11D05C026E8FA
:10363000230F0296A11DB11D20935F0680936006A3
:1036400090936106A0936206B0936306809164062E
:1036500090916506A0916606B09167060196A11D3E
:10366000B11D8093640690936506A0936606B0939F
:103670006706BF91AF919F918F913F912F910F90CE
:103680000FBE0F901F9018952FB7F89460916006A9
:103690007091610680916206909163062FBF089534
:1036A0003FB7F8948091640690916506A0916606F4
:1036B000B091670626B5A89B05C02F3F19F001966B
:1036C000A11DB11D3FBF6627782F892F9A2F620F4A
:1036D000711D811D911D42E0660F771F881F991F84
:1036E0004A95D1F70895CF92DF92EF92FF92CF9350
:1036F000DF936B017C010E94501BEB01C114D104CC
:10370000E104F10489F00E943F1E0E94501B6C1BD3
:103710007D0B683E734090F381E0C81AD108E10840
:10372000F108C851DC4FEACFDF91CF91FF90EF90C5
:10373000DF90CF9008958230910538F0880F991F5F
:10374000880F991F05970197F1F70895789484B52C
:10375000826084BD84B5816084BD85B5826085BD8D
:1037600085B5816085BDEEE6F0E080818160808373
:10377000E1E8F0E010828081826080838081816056
:103780008083E0E8F0E0808181608083E1EBF0E01D
:10379000808184608083E0EBF0E0808181608083C1
:1037A000EAE7F0E0808184608083808182608083AA
:1037B0008081816080838081806880831092C100D5
:1037C00008958E3008F08E50877020914D0190E45E
:1037D000299F90011124822B80937C0080917A0094
:1037E000806480937A0080917A0086FDFCCF80917E
:1037F00078002091790090E0922B08951F93CF9349
:10380000DF93182FEB0161E00E94861C209711F4D2
:1038100060E004C0CF3FD10539F461E0812FDF9132
:10382000CF911F910C94BF1CE12FF0E0E859FF4F9E
:10383000E491E330F9F048F4E130B9F0E230A1F579
:1038400084B5806284BDC8BD34C0E730E9F0E8309B
:1038500019F1E43049F58091800080628093800006
:10386000D0938B00C0938A0024C084B5806884BD47
:10387000C7BD1FC080918000806880938000D09376
:103880008900C093880015C08091B0008068809343
:10389000B000C093B3000DC08091B00080628093EF
:1038A000B000C093B40005C0C038D1050CF0B5CF4E
:1038B000AFCFDF91CF911F910895833081F028F42D
:1038C000813099F08230A1F008958730A9F08830D6
:1038D000B9F08430D1F4809180008F7D03C0809155
:1038E00080008F7780938000089584B58F7702C021
:1038F00084B58F7D84BD08958091B0008F7703C01B
:103900008091B0008F7D8093B0000895CF93DF93B6
:1039100090E0FC01E458FF4F2491FC01E057FF4F79
:103920008491882349F190E0880F991FFC01E854A5
:10393000FF4FA591B49182559F4FFC01C591D49141
:103940009FB7611108C0F8948C91209582238C93C5
:10395000888182230AC0623051F4F8948C91322F0E
:10396000309583238C938881822B888304C0F894BC
:103970008C91822B8C939FBFDF91CF9108950F93F1
:103980001F93CF93DF931F92CDB7DEB7282F30E080
:10399000F901E859FF4F8491F901E458FF4F149160
:1039A000F901E057FF4F04910023C9F0882321F06B
:1039B00069830E945D1C6981E02FF0E0EE0FFF1F1C
:1039C000E255FF4FA591B4919FB7F8948C91611186
:1039D00003C01095812301C0812B8C939FBF0F9052
:1039E000DF91CF911F910F910895CF93DF93282FEF
:1039F00030E0F901E859FF4F8491F901E458FF4F95
:103A0000D491F901E057FF4FC491CC2391F081117B
:103A10000E945D1CEC2FF0E0EE0FFF1FEC55FF4FF6
:103A2000A591B4912C912D2381E090E021F480E0C8
:103A300002C080E090E0DF91CF9108950F931F9333
:103A4000762F90E0FC01E458FF4F6491FC01E057B1
:103A5000FF4FE4917111762FF0E0EE0FFF1FEC5550
:103A6000FF4F8591949189019A013F70472F0E94E1
:103A70008E00611571058105910531F06F5F7F4FF3
:103A80008F4F9F4F9F7003C060E070E0CB011F918C
:103A90000F9108951F920F920FB60F9211242F933A
:103AA0008F939F93EF93FF93E0917806F0917906BF
:103AB0008081E0917E06F0917F0682FD12C09081A8
:103AC000809181068F5F8F7320918206821751F05B
:103AD000E0918106F0E0E859F94F958F80938106D7
:103AE00001C08081FF91EF919F918F912F910F9055
:103AF0000FBE0F901F9018951F920F920FB60F9246
:103B000011242F933F934F935F936F937F938F93E2
:103B10009F93AF93BF93EF93FF9388E696E00E9445
:103B20007B1EFF91EF91BF91AF919F918F917F91FC
:103B30006F915F914F913F912F910F900FBE0F901A
:103B40001F90189588E696E00E94401E21E0892B80
:103B500009F420E0822F089510926B0610926A06F5
:103B600088EE93E0A0E0B0E080936C0690936D0641
:103B7000A0936E06B0936F0682EA91E09093690677
:103B80008093680685EC90E09093750680937406A8
:103B900084EC90E0909377068093760680EC90E03A
:103BA000909379068093780681EC90E090937B0661
:103BB00080937A0682EC90E090937D0680937C0659
:103BC00086EC90E090937F0680937E0610928106AB
:103BD000109282061092830610928406089508952A
:103BE0000E94A61B0E94EF1D0E94D505CDE6DEE1D6
:103BF0000E94EE052097E1F30E946D1EF9CFCF924F
:103C0000DF92EF92FF920F931F93CF93DF936C019C
:103C10007A01EB01E60EF71E00E010E0CE15DF059D
:103C200061F06991D601ED91FC910190F081E02D58
:103C3000C6010995080F191FF1CFC801DF91CF9177
:103C40001F910F91FF90EF90DF90CF900895611535
:103C5000710581F0DB010D900020E9F7AD014150C5
:103C60005109461B570BDC01ED91FC910280F38159
:103C7000E02D099480E090E008950C94271E0895AB
:103C8000FC01818D228D90E0805C9F4F821B910909
:103C90008F7399270895FC01918D828D981731F0CB
:103CA000828DE80FF11D858D90E008958FEF9FEFD5
:103CB0000895FC01918D828D981761F0828DDF014E
:103CC000A80FB11D5D968C91928D9F5F9F73928F0F
:103CD00090E008958FEF9FEF089582EA9DE1892B90
:103CE00049F080E090E0892B29F00E94A21D81110B
:103CF0000C9400000895FC01848DDF01A80FB11D14
:103D0000A35ABF4F2C91848D90E001968F73992711
:103D1000848FA689B7892C93A089B1898C918064FE
:103D20008C93938D848D981306C00288F389E02DBF
:103D300080818F7D80830895CF93DF93EC01888D00
:103D40008823C9F0EA89FB89808185FD05C0A8899F
:103D5000B9898C9186FD0FC00FB607FCF5CF808125
:103D600085FFF2CFA889B9898C9185FFEDCFCE016F
:103D70000E947B1EE7CFDF91CF910895CF92DF9213
:103D8000FF920F931F93CF93DF931F92CDB7DEB7B0
:103D90006C0181E0D60158968C9358975B969C9164
:103DA0005B975C968C915C97981307C05096ED9149
:103DB000FC915197808185FD2EC0F601038D10E0A6
:103DC0000F5F1F4F0F731127F02EF601848DF8122D
:103DD00011C00FB607FCF9CFD6015096ED91FC91BA
:103DE0005197808185FFF1CFC60169830E947B1EB8
:103DF0006981EBCF838DE80FF11DE35AFF4F60839C
:103E0000D6015B960C935B975296ED91FC9153977C
:103E1000808180620CC0D6015696ED91FC91579737
:103E200060835096ED91FC915197808180648083EE
:103E300081E090E00F90DF91CF911F910F91FF9063
:103E4000DF90CF9008955058BB27AA270ED04DC1C0
:103E50003ED130F043D120F031F49F3F11F41EF4F5
:103E600033C10EF4E095E7FB29C1E92F4FD180F370
:103E7000BA17620773078407950718F071F49EF567
:103E800067C10EF4E0950B2EBA2FA02D0B01B901DE
:103E900090010C01CA01A0011124FF27591B99F0C0
:103EA000593F50F4503E68F11A16F040A22F232FCC
:103EB000342F4427585FF3CF469537952795A7951C
:103EC000F0405395C9F77EF41F16BA0B620B730BC3
:103ED000840BBAF09150A1F0FF0FBB1F661F771F34
:103EE000881FC2F70EC0BA0F621F731F841F48F4E9
:103EF000879577956795B795F7959E3F08F0B3CF6F
:103F00009395880F08F09927EE0F97958795089558
:103F10000CD0EBC0E3D040F0DAD030F021F45F3FBA
:103F200019F0CCC0511115C1CFC0F0D098F399232E
:103F3000C9F35523B1F3951B550BBB27AA2762176D
:103F40007307840738F09F5F5F4F220F331F441FB2
:103F5000AA1FA9F333D00E2E3AF0E0E830D09150EA
:103F60005040E695001CCAF729D0FE2F27D0660FD7
:103F7000771F881FBB1F261737074807AB07B0E816
:103F800009F0BB0B802DBF01FF2793585F4F2AF02C
:103F90009E3F510568F092C0DCC05F3FECF3983E55
:103FA000DCF3869577956795B795F7959F5FC9F789
:103FB000880F911D9695879597F90895E1E0660F12
:103FC000771F881FBB1F621773078407BA0720F08B
:103FD000621B730B840BBA0BEE1F88F7E0950895F4
:103FE00004D06894B111B5C0089598D088F09F5757
:103FF00090F0B92F9927B751A0F0D1F0660F771F35
:10400000881F991F1AF0BA95C9F712C0B13081F014
:104010009FD0B1E008959CC0672F782F8827B85FA4
:1040200039F0B93FCCF3869577956795B395D9F775
:104030003EF490958095709561957F4F8F4F9F4F7F
:104040000895E89409C097FB3EF49095809570958B
:1040500061957F4F8F4F9F4F9923A9F0F92F96E9D4
:10406000BB279395F695879577956795B795F11149
:10407000F8CFFAF4BB0F11F460FF1BC06F5F7F4FE6
:104080008F4F9F4F16C0882311F096E911C07723F8
:1040900021F09EE8872F762F05C0662371F096E801
:1040A000862F70E060E02AF09A95660F771F881FD0
:1040B000DAF7880F9695879597F9089597F99F678E
:1040C00080E870E060E008959FEF80EC08950024A0
:1040D0000A941616170618060906089500240A946D
:1040E00012161306140605060895092E0394000CF3
:1040F00011F4882352F0BB0F40F4BF2B11F460FF82
:1041000004C06F5F7F4F8F4F9F4F089557FD9058AA
:10411000440F551F59F05F3F71F04795880F97FB8B
:10412000991F61F09F3F79F0879508951216130645
:104130001406551FF2CF4695F1DF08C01616170674
:104140001806991FF1CF86957105610508940895A9
:10415000E894BB2766277727CB0197F908950BD002
:10416000C4CFB5DF28F0BADF18F0952309F0A6CF49
:10417000ABCF1124EECFCADFA0F3959FD1F3950FFB
:1041800050E0551F629FF001729FBB27F00DB11DDB
:10419000639FAA27F00DB11DAA1F649F6627B00D6B
:1041A000A11D661F829F2227B00DA11D621F739F54
:1041B000B00DA11D621F839FA00D611D221F749F62
:1041C0003327A00D611D231F849F600D211D822FA9
:1041D000762F6A2F11249F5750408AF0E1F08823F0
:1041E0004AF0EE0FFF1FBB1F661F771F881F9150FD
:1041F0005040A9F79E3F510570F060CFAACF5F3FB6
:10420000ECF3983EDCF3869577956795B795F7952F
:10421000E7959F5FC1F7FE2B880F911D96958795B7
:1042200097F9089597FB072E16F4009407D077FDB1
:1042300009D00E94672107FC05D03EF49095819536
:104240009F4F0895709561957F4F0895A1E21A2EB2
:10425000AA1BBB1BFD010DC0AA1FBB1FEE1FFF1F2A
:10426000A217B307E407F50720F0A21BB30BE40B7A
:10427000F50B661F771F881F991F1A9469F76095C1
:104280007095809590959B01AC01BD01CF0108957B
:10429000052E97FB1EF400940E945F2157FD07D066
:1042A0000E94262107FC03D04EF40C945F21509508
:1042B0004095309521953F4F4F4F5F4F0895909512
:1042C0008095709561957F4F8F4F9F4F0895AA1BE2
:1042D000BB1B51E107C0AA1FBB1FA617B70710F0F1
:1042E000A61BB70B881F991F5A95A9F78095909523
:1042F000BC01CD010895EE0FFF1F0590F491E02D54
:1043000009940F931F93CF93DF93869F8001879F1C
:10431000100D969F100D1124C8010E949D21EC01E3
:10432000009729F0A80160E070E00E94C422CE014D
:10433000DF91CF911F910F910895CF93DF9382303A
:10434000910510F482E090E0E0910707F0910807F2
:1043500020E030E0A0E0B0E0309739F140815181B9
:1043600048175907B8F04817590771F482819381AB
:10437000109729F013969C938E9312972CC09093CC
:1043800008078093070727C02115310531F0421730
:10439000530718F0A901DB0101C0EF019A01BD012B
:1043A000DF010280F381E02DD7CF21153105F9F02F
:1043B000281B390B2430310580F48A819B816115DB
:1043C000710521F0FB019383828304C09093080759
:1043D00080930707FE01329644C0FE01E20FF31FEF
:1043E0008193919322503109398328833AC02091D7
:1043F000050730910607232B41F4209102013091EB
:1044000003013093060720930507209100013091A6
:1044100001012115310541F42DB73EB7409104014A
:1044200050910501241B350BE0910507F09106071B
:10443000E217F307A0F42E1B3F0B2817390778F07B
:10444000AC014E5F5F4F2417350748F04E0F5F1FDA
:1044500050930607409305078193919302C0E0E0D3
:10446000F0E0CF01DF91CF910895CF93DF930097D4
:1044700009F487C0FC01329713821282C0910707AA
:10448000D0910807209781F420813181280F391FAE
:1044900080910507909106078217930779F5F093AD
:1044A0000607E09305076DC0DE0120E030E0AE179F
:1044B000BF0750F412964D915C9113979D014115E1
:1044C000510509F1DA01F3CFB383A2834081518111
:1044D000840F951F8A179B0771F48D919C911197FA
:1044E000840F951F02969183808312968D919C91E3
:1044F0001397938382832115310529F4F0930807DC
:10450000E09307073EC0D9011396FC93EE931297F0
:104510004D915D91A40FB51FEA17FB0779F48081D7
:104520009181840F951F0296D90111969C938E93C9
:104530008281938113969C938E931297E0E0F0E032
:104540008A819B81009719F0FE01EC01F9CFCE0121
:10455000029628813981820F931F2091050730919F
:1045600006072817390769F4309729F410920807CD
:104570001092070702C013821282D0930607C093DD
:104580000507DF91CF910895DC0101C06D93415083
:0A4590005040E0F70895F894FFCFC3
:10459A000000090780000C0B0A2A2A2A2A2A2A382C
:1045AA002C000000000000000000000000000000D5
:1045BA0000000000000000000000000000000000F1
:1045CA0000000000000000000000000000000000E1
:1045DA0000000000000000000000000000010000D0
:1045EA0001000800400000010004050D52656164E5
:1045FA00206661696C0001000A006400E8033F0656
:10460A005B4F666D7D077F6F777C395E79710D0E22
:10461A00131516191A1C232526292A2C32340000B0
:10462A000000B9178C1732173A174D175C1700009C
:0E463A000000BE1EFF1D401E591E4B1E9C1E82
:00000001FF
